{
	"Fundme.sol": {
		"FundMe": {
			"abi": [
				{
					"inputs": [],
					"stateMutability": "nonpayable",
					"type": "constructor"
				},
				{
					"inputs": [],
					"name": "Withdraw",
					"outputs": [],
					"stateMutability": "nonpayable",
					"type": "function"
				},
				{
					"inputs": [
						{
							"internalType": "address",
							"name": "funder",
							"type": "address"
						}
					],
					"name": "addressToAmmountFunded",
					"outputs": [
						{
							"internalType": "uint256",
							"name": "ammountfunded",
							"type": "uint256"
						}
					],
					"stateMutability": "view",
					"type": "function"
				},
				{
					"inputs": [],
					"name": "fund",
					"outputs": [],
					"stateMutability": "payable",
					"type": "function"
				},
				{
					"inputs": [
						{
							"internalType": "uint256",
							"name": "",
							"type": "uint256"
						}
					],
					"name": "funders",
					"outputs": [
						{
							"internalType": "address",
							"name": "",
							"type": "address"
						}
					],
					"stateMutability": "view",
					"type": "function"
				},
				{
					"inputs": [],
					"name": "i_owner",
					"outputs": [
						{
							"internalType": "address",
							"name": "",
							"type": "address"
						}
					],
					"stateMutability": "view",
					"type": "function"
				},
				{
					"inputs": [],
					"name": "min_USD",
					"outputs": [
						{
							"internalType": "uint256",
							"name": "",
							"type": "uint256"
						}
					],
					"stateMutability": "view",
					"type": "function"
				}
			],
			"devdoc": {
				"kind": "dev",
				"methods": {},
				"version": 1
			},
			"evm": {
				"assembly": "    /* \"Fundme.sol\":313:4934  contract FundMe{... */\n  mstore(0x40, 0xa0)\n    /* \"Fundme.sol\":640:648  1 * 1e15 */\n  0x038d7ea4c68000\n    /* \"Fundme.sol\":615:648  uint256 public min_USD = 1 * 1e15 */\n  0x00\n  sstore\n    /* \"Fundme.sol\":989:1049  constructor(){... */\n  callvalue\n  dup1\n  iszero\n  tag_1\n  jumpi\n  0x00\n  dup1\n  revert\ntag_1:\n  pop\n    /* \"Fundme.sol\":1027:1037  msg.sender */\n  caller\n    /* \"Fundme.sol\":1017:1037  i_owner = msg.sender */\n  0xffffffffffffffffffffffffffffffffffffffff\n  and\n  0x80\n  dup2\n  0xffffffffffffffffffffffffffffffffffffffff\n  and\n  dup2\n  mstore\n  pop\n  pop\n    /* \"Fundme.sol\":313:4934  contract FundMe{... */\n  mload(0x80)\n  codecopy(0x00, dataOffset(sub_0), dataSize(sub_0))\n  0x00\n  assignImmutable(\"0x35bb2e240092263378f77ea1e9c278099a33b604c4c4e26d13ea227e8bb74470\")\n  return(0x00, dataSize(sub_0))\nstop\n\nsub_0: assembly {\n        /* \"Fundme.sol\":313:4934  contract FundMe{... */\n      mstore(0x40, 0x80)\n      jumpi(tag_1, lt(calldatasize, 0x04))\n      shr(0xe0, calldataload(0x00))\n      dup1\n      0x57ea89b6\n      eq\n      tag_2\n      jumpi\n      dup1\n      0x9d68f269\n      eq\n      tag_3\n      jumpi\n      dup1\n      0xb60d4288\n      eq\n      tag_4\n      jumpi\n      dup1\n      0xdba6335f\n      eq\n      tag_5\n      jumpi\n      dup1\n      0xdc0d3dff\n      eq\n      tag_6\n      jumpi\n      dup1\n      0xeb2aae5c\n      eq\n      tag_7\n      jumpi\n    tag_1:\n      0x00\n      dup1\n      revert\n        /* \"Fundme.sol\":2203:3454  function Withdraw() public onlyOwner{... */\n    tag_2:\n      callvalue\n      dup1\n      iszero\n      tag_8\n      jumpi\n      0x00\n      dup1\n      revert\n    tag_8:\n      pop\n      tag_9\n      tag_10\n      jump\t// in\n    tag_9:\n      stop\n        /* \"Fundme.sol\":754:833  mapping (address funder => uint256 ammountfunded) public addressToAmmountFunded */\n    tag_3:\n      callvalue\n      dup1\n      iszero\n      tag_11\n      jumpi\n      0x00\n      dup1\n      revert\n    tag_11:\n      pop\n      tag_12\n      0x04\n      dup1\n      calldatasize\n      sub\n      dup2\n      add\n      swap1\n      tag_13\n      swap2\n      swap1\n      tag_14\n      jump\t// in\n    tag_13:\n      tag_15\n      jump\t// in\n    tag_12:\n      mload(0x40)\n      tag_16\n      swap2\n      swap1\n      tag_17\n      jump\t// in\n    tag_16:\n      mload(0x40)\n      dup1\n      swap2\n      sub\n      swap1\n      return\n        /* \"Fundme.sol\":1055:1372  function fund() public payable {... */\n    tag_4:\n      tag_18\n      tag_19\n      jump\t// in\n    tag_18:\n      stop\n        /* \"Fundme.sol\":946:978  address public immutable i_owner */\n    tag_5:\n      callvalue\n      dup1\n      iszero\n      tag_20\n      jumpi\n      0x00\n      dup1\n      revert\n    tag_20:\n      pop\n      tag_21\n      tag_22\n      jump\t// in\n    tag_21:\n      mload(0x40)\n      tag_23\n      swap2\n      swap1\n      tag_24\n      jump\t// in\n    tag_23:\n      mload(0x40)\n      dup1\n      swap2\n      sub\n      swap1\n      return\n        /* \"Fundme.sol\":661:685  address[] public funders */\n    tag_6:\n      callvalue\n      dup1\n      iszero\n      tag_25\n      jumpi\n      0x00\n      dup1\n      revert\n    tag_25:\n      pop\n      tag_26\n      0x04\n      dup1\n      calldatasize\n      sub\n      dup2\n      add\n      swap1\n      tag_27\n      swap2\n      swap1\n      tag_28\n      jump\t// in\n    tag_27:\n      tag_29\n      jump\t// in\n    tag_26:\n      mload(0x40)\n      tag_30\n      swap2\n      swap1\n      tag_24\n      jump\t// in\n    tag_30:\n      mload(0x40)\n      dup1\n      swap2\n      sub\n      swap1\n      return\n        /* \"Fundme.sol\":615:648  uint256 public min_USD = 1 * 1e15 */\n    tag_7:\n      callvalue\n      dup1\n      iszero\n      tag_31\n      jumpi\n      0x00\n      dup1\n      revert\n    tag_31:\n      pop\n      tag_32\n      tag_33\n      jump\t// in\n    tag_32:\n      mload(0x40)\n      tag_34\n      swap2\n      swap1\n      tag_17\n      jump\t// in\n    tag_34:\n      mload(0x40)\n      dup1\n      swap2\n      sub\n      swap1\n      return\n        /* \"Fundme.sol\":2203:3454  function Withdraw() public onlyOwner{... */\n    tag_10:\n        /* \"Fundme.sol\":4803:4810  i_owner */\n      immutable(\"0x35bb2e240092263378f77ea1e9c278099a33b604c4c4e26d13ea227e8bb74470\")\n        /* \"Fundme.sol\":4789:4810  msg.sender == i_owner */\n      0xffffffffffffffffffffffffffffffffffffffff\n      and\n        /* \"Fundme.sol\":4789:4799  msg.sender */\n      caller\n        /* \"Fundme.sol\":4789:4810  msg.sender == i_owner */\n      0xffffffffffffffffffffffffffffffffffffffff\n      and\n      eq\n        /* \"Fundme.sol\":4781:4834  require(msg.sender == i_owner, \"Sender is not owner\") */\n      tag_36\n      jumpi\n      mload(0x40)\n      0x08c379a000000000000000000000000000000000000000000000000000000000\n      dup2\n      mstore\n      0x04\n      add\n      tag_37\n      swap1\n      tag_38\n      jump\t// in\n    tag_37:\n      mload(0x40)\n      dup1\n      swap2\n      sub\n      swap1\n      revert\n    tag_36:\n        /* \"Fundme.sol\":2366:2385  uint256 funderIndex */\n      0x00\n        /* \"Fundme.sol\":2362:2713  for(uint256 funderIndex = 0;funderIndex < funders.length;funderIndex++){... */\n    tag_40:\n        /* \"Fundme.sol\":2404:2411  funders */\n      0x01\n        /* \"Fundme.sol\":2404:2418  funders.length */\n      dup1\n      sload\n      swap1\n      pop\n        /* \"Fundme.sol\":2390:2401  funderIndex */\n      dup2\n        /* \"Fundme.sol\":2390:2418  funderIndex < funders.length */\n      lt\n        /* \"Fundme.sol\":2362:2713  for(uint256 funderIndex = 0;funderIndex < funders.length;funderIndex++){... */\n      iszero\n      tag_41\n      jumpi\n        /* \"Fundme.sol\":2519:2541  address funder_address */\n      0x00\n        /* \"Fundme.sol\":2544:2551  funders */\n      0x01\n        /* \"Fundme.sol\":2552:2563  funderIndex */\n      dup3\n        /* \"Fundme.sol\":2544:2564  funders[funderIndex] */\n      dup2\n      sload\n      dup2\n      lt\n      tag_43\n      jumpi\n      tag_44\n      tag_45\n      jump\t// in\n    tag_44:\n    tag_43:\n      swap1\n      0x00\n      mstore\n      keccak256(0x00, 0x20)\n      add\n      0x00\n      swap1\n      sload\n      swap1\n      0x0100\n      exp\n      swap1\n      div\n      0xffffffffffffffffffffffffffffffffffffffff\n      and\n        /* \"Fundme.sol\":2519:2564  address funder_address = funders[funderIndex] */\n      swap1\n      pop\n        /* \"Fundme.sol\":2700:2701  0 */\n      0x00\n        /* \"Fundme.sol\":2659:2681  addressToAmmountFunded */\n      0x02\n        /* \"Fundme.sol\":2659:2697  addressToAmmountFunded[funder_address] */\n      0x00\n        /* \"Fundme.sol\":2682:2696  funder_address */\n      dup4\n        /* \"Fundme.sol\":2659:2697  addressToAmmountFunded[funder_address] */\n      0xffffffffffffffffffffffffffffffffffffffff\n      and\n      0xffffffffffffffffffffffffffffffffffffffff\n      and\n      dup2\n      mstore\n      0x20\n      add\n      swap1\n      dup2\n      mstore\n      0x20\n      add\n      0x00\n      keccak256\n        /* \"Fundme.sol\":2659:2701  addressToAmmountFunded[funder_address] = 0 */\n      dup2\n      swap1\n      sstore\n      pop\n        /* \"Fundme.sol\":2433:2713  {... */\n      pop\n        /* \"Fundme.sol\":2419:2432  funderIndex++ */\n      dup1\n      dup1\n      0x01\n      add\n      swap2\n      pop\n      pop\n        /* \"Fundme.sol\":2362:2713  for(uint256 funderIndex = 0;funderIndex < funders.length;funderIndex++){... */\n      jump(tag_40)\n    tag_41:\n      pop\n        /* \"Fundme.sol\":2779:2780  0 */\n      0x00\n        /* \"Fundme.sol\":2765:2781  new address[](0) */\n      0xffffffffffffffff\n      dup2\n      gt\n      iszero\n      tag_47\n      jumpi\n      tag_48\n      tag_49\n      jump\t// in\n    tag_48:\n    tag_47:\n      mload(0x40)\n      swap1\n      dup1\n      dup3\n      mstore\n      dup1\n      0x20\n      mul\n      0x20\n      add\n      dup3\n      add\n      0x40\n      mstore\n      dup1\n      iszero\n      tag_50\n      jumpi\n      dup2\n      0x20\n      add\n      0x20\n      dup3\n      mul\n      dup1\n      calldatasize\n      dup4\n      calldatacopy\n      dup1\n      dup3\n      add\n      swap2\n      pop\n      pop\n      swap1\n      pop\n    tag_50:\n      pop\n        /* \"Fundme.sol\":2755:2762  funders */\n      0x01\n        /* \"Fundme.sol\":2755:2781  funders = new address[](0) */\n      swap1\n      dup1\n      mload\n      swap1\n      0x20\n      add\n      swap1\n      tag_51\n      swap3\n      swap2\n      swap1\n      tag_52\n      jump\t// in\n    tag_51:\n      pop\n        /* \"Fundme.sol\":3317:3333  bool callsuccess */\n      0x00\n        /* \"Fundme.sol\":3347:3357  msg.sender */\n      caller\n        /* \"Fundme.sol\":3338:3363  payable (msg.sender).call */\n      0xffffffffffffffffffffffffffffffffffffffff\n      and\n        /* \"Fundme.sol\":3371:3392  address(this).balance */\n      selfbalance\n        /* \"Fundme.sol\":3338:3397  payable (msg.sender).call{value: address(this).balance}(\"\") */\n      mload(0x40)\n      tag_53\n      swap1\n      tag_54\n      jump\t// in\n    tag_53:\n      0x00\n      mload(0x40)\n      dup1\n      dup4\n      sub\n      dup2\n      dup6\n      dup8\n      gas\n      call\n      swap3\n      pop\n      pop\n      pop\n      returndatasize\n      dup1\n      0x00\n      dup2\n      eq\n      tag_57\n      jumpi\n      mload(0x40)\n      swap2\n      pop\n      and(add(returndatasize, 0x3f), not(0x1f))\n      dup3\n      add\n      0x40\n      mstore\n      returndatasize\n      dup3\n      mstore\n      returndatasize\n      0x00\n      0x20\n      dup5\n      add\n      returndatacopy\n      jump(tag_56)\n    tag_57:\n      0x60\n      swap2\n      pop\n    tag_56:\n      pop\n        /* \"Fundme.sol\":3316:3397  (bool callsuccess,) = payable (msg.sender).call{value: address(this).balance}(\"\") */\n      pop\n      swap1\n      pop\n        /* \"Fundme.sol\":3416:3427  callsuccess */\n      dup1\n        /* \"Fundme.sol\":3408:3442  require(callsuccess,\"call_Failed\") */\n      tag_58\n      jumpi\n      mload(0x40)\n      0x08c379a000000000000000000000000000000000000000000000000000000000\n      dup2\n      mstore\n      0x04\n      add\n      tag_59\n      swap1\n      tag_60\n      jump\t// in\n    tag_59:\n      mload(0x40)\n      dup1\n      swap2\n      sub\n      swap1\n      revert\n    tag_58:\n        /* \"Fundme.sol\":2239:3454  {... */\n      pop\n        /* \"Fundme.sol\":2203:3454  function Withdraw() public onlyOwner{... */\n      jump\t// out\n        /* \"Fundme.sol\":754:833  mapping (address funder => uint256 ammountfunded) public addressToAmmountFunded */\n    tag_15:\n      mstore(0x20, 0x02)\n      dup1\n      0x00\n      mstore\n      keccak256(0x00, 0x40)\n      0x00\n      swap2\n      pop\n      swap1\n      pop\n      sload\n      dup2\n      jump\t// out\n        /* \"Fundme.sol\":1055:1372  function fund() public payable {... */\n    tag_19:\n        /* \"Fundme.sol\":1113:1114  0 */\n      0x00\n        /* \"Fundme.sol\":1101:1110  msg.value */\n      callvalue\n        /* \"Fundme.sol\":1101:1114  msg.value > 0 */\n      gt\n        /* \"Fundme.sol\":1093:1131  require(msg.value > 0, \"No ETH sent!\") */\n      tag_62\n      jumpi\n      mload(0x40)\n      0x08c379a000000000000000000000000000000000000000000000000000000000\n      dup2\n      mstore\n      0x04\n      add\n      tag_63\n      swap1\n      tag_64\n      jump\t// in\n    tag_63:\n      mload(0x40)\n      dup1\n      swap2\n      sub\n      swap1\n      revert\n    tag_62:\n        /* \"Fundme.sol\":1155:1173  uint256 conversion */\n      0x00\n        /* \"Fundme.sol\":1176:1205  msg.value.getConversionRate() */\n      tag_65\n        /* \"Fundme.sol\":1176:1185  msg.value */\n      callvalue\n        /* \"Fundme.sol\":1176:1203  msg.value.getConversionRate */\n      tag_66\n        /* \"Fundme.sol\":1176:1205  msg.value.getConversionRate() */\n      jump\t// in\n    tag_65:\n        /* \"Fundme.sol\":1155:1205  uint256 conversion = msg.value.getConversionRate() */\n      swap1\n      pop\n        /* \"Fundme.sol\":1234:1241  min_USD */\n      sload(0x00)\n        /* \"Fundme.sol\":1220:1230  conversion */\n      dup2\n        /* \"Fundme.sol\":1220:1241  conversion >= min_USD */\n      lt\n      iszero\n        /* \"Fundme.sol\":1212:1267  require(conversion >= min_USD, \"Didnt send enough ETH\") */\n      tag_67\n      jumpi\n      mload(0x40)\n      0x08c379a000000000000000000000000000000000000000000000000000000000\n      dup2\n      mstore\n      0x04\n      add\n      tag_68\n      swap1\n      tag_69\n      jump\t// in\n    tag_68:\n      mload(0x40)\n      dup1\n      swap2\n      sub\n      swap1\n      revert\n    tag_67:\n        /* \"Fundme.sol\":1290:1297  funders */\n      0x01\n        /* \"Fundme.sol\":1303:1313  msg.sender */\n      caller\n        /* \"Fundme.sol\":1290:1314  funders.push(msg.sender) */\n      swap1\n      dup1\n      0x01\n      dup2\n      sload\n      add\n      dup1\n      dup3\n      sstore\n      dup1\n      swap2\n      pop\n      pop\n      0x01\n      swap1\n      sub\n      swap1\n      0x00\n      mstore\n      keccak256(0x00, 0x20)\n      add\n      0x00\n      swap1\n      swap2\n      swap1\n      swap2\n      swap1\n      swap2\n      0x0100\n      exp\n      dup2\n      sload\n      dup2\n      0xffffffffffffffffffffffffffffffffffffffff\n      mul\n      not\n      and\n      swap1\n      dup4\n      0xffffffffffffffffffffffffffffffffffffffff\n      and\n      mul\n      or\n      swap1\n      sstore\n      pop\n        /* \"Fundme.sol\":1359:1368  msg.value */\n      callvalue\n        /* \"Fundme.sol\":1321:1343  addressToAmmountFunded */\n      0x02\n        /* \"Fundme.sol\":1321:1355  addressToAmmountFunded[msg.sender] */\n      0x00\n        /* \"Fundme.sol\":1344:1354  msg.sender */\n      caller\n        /* \"Fundme.sol\":1321:1355  addressToAmmountFunded[msg.sender] */\n      0xffffffffffffffffffffffffffffffffffffffff\n      and\n      0xffffffffffffffffffffffffffffffffffffffff\n      and\n      dup2\n      mstore\n      0x20\n      add\n      swap1\n      dup2\n      mstore\n      0x20\n      add\n      0x00\n      keccak256\n      0x00\n        /* \"Fundme.sol\":1321:1368  addressToAmmountFunded[msg.sender] += msg.value */\n      dup3\n      dup3\n      sload\n      tag_71\n      swap2\n      swap1\n      tag_72\n      jump\t// in\n    tag_71:\n      swap3\n      pop\n      pop\n      dup2\n      swap1\n      sstore\n      pop\n        /* \"Fundme.sol\":1086:1372  {... */\n      pop\n        /* \"Fundme.sol\":1055:1372  function fund() public payable {... */\n      jump\t// out\n        /* \"Fundme.sol\":946:978  address public immutable i_owner */\n    tag_22:\n      immutable(\"0x35bb2e240092263378f77ea1e9c278099a33b604c4c4e26d13ea227e8bb74470\")\n      dup2\n      jump\t// out\n        /* \"Fundme.sol\":661:685  address[] public funders */\n    tag_29:\n      0x01\n      dup2\n      dup2\n      sload\n      dup2\n      lt\n      tag_73\n      jumpi\n      0x00\n      dup1\n      revert\n    tag_73:\n      swap1\n      0x00\n      mstore\n      keccak256(0x00, 0x20)\n      add\n      0x00\n      swap2\n      pop\n      sload\n      swap1\n      0x0100\n      exp\n      swap1\n      div\n      0xffffffffffffffffffffffffffffffffffffffff\n      and\n      dup2\n      jump\t// out\n        /* \"Fundme.sol\":615:648  uint256 public min_USD = 1 * 1e15 */\n    tag_33:\n      sload(0x00)\n      dup2\n      jump\t// out\n        /* \"PriceConverter.sol\":1021:1525  function getConversionRate(uint256 ethammount) internal view returns(uint256){... */\n    tag_66:\n        /* \"PriceConverter.sol\":1090:1097  uint256 */\n      0x00\n        /* \"PriceConverter.sol\":1234:1250  uint256 ethPrice */\n      dup1\n        /* \"PriceConverter.sol\":1253:1263  getPrice() */\n      tag_76\n        /* \"PriceConverter.sol\":1253:1261  getPrice */\n      tag_77\n        /* \"PriceConverter.sol\":1253:1263  getPrice() */\n      jump\t// in\n    tag_76:\n        /* \"PriceConverter.sol\":1234:1263  uint256 ethPrice = getPrice() */\n      swap1\n      pop\n        /* \"PriceConverter.sol\":1390:1415  uint256 ethammount_in_USD */\n      0x00\n        /* \"PriceConverter.sol\":1440:1444  1e18 */\n      0x0de0b6b3a7640000\n        /* \"PriceConverter.sol\":1428:1438  ethammount */\n      dup5\n        /* \"PriceConverter.sol\":1419:1427  ethPrice */\n      dup4\n        /* \"PriceConverter.sol\":1419:1438  ethPrice*ethammount */\n      tag_78\n      swap2\n      swap1\n      tag_79\n      jump\t// in\n    tag_78:\n        /* \"PriceConverter.sol\":1418:1444  (ethPrice*ethammount)/1e18 */\n      tag_80\n      swap2\n      swap1\n      tag_81\n      jump\t// in\n    tag_80:\n        /* \"PriceConverter.sol\":1390:1444  uint256 ethammount_in_USD = (ethPrice*ethammount)/1e18 */\n      swap1\n      pop\n        /* \"PriceConverter.sol\":1462:1479  ethammount_in_USD */\n      dup1\n        /* \"PriceConverter.sol\":1455:1479  return ethammount_in_USD */\n      swap3\n      pop\n      pop\n      pop\n        /* \"PriceConverter.sol\":1021:1525  function getConversionRate(uint256 ethammount) internal view returns(uint256){... */\n      swap2\n      swap1\n      pop\n      jump\t// out\n        /* \"PriceConverter.sol\":362:1013  function getPrice() internal view returns (uint256){... */\n    tag_77:\n        /* \"PriceConverter.sol\":405:412  uint256 */\n      0x00\n        /* \"PriceConverter.sol\":540:571  AggregatorV3Interface pricefeed */\n      dup1\n        /* \"PriceConverter.sol\":596:638  0x694AA1769357215DE4FAC081bf1f309aDC325306 */\n      0x694aa1769357215de4fac081bf1f309adc325306\n        /* \"PriceConverter.sol\":540:639  AggregatorV3Interface pricefeed = AggregatorV3Interface(0x694AA1769357215DE4FAC081bf1f309aDC325306) */\n      swap1\n      pop\n        /* \"PriceConverter.sol\":766:778  int256 price */\n      0x00\n        /* \"PriceConverter.sol\":784:793  pricefeed */\n      dup2\n        /* \"PriceConverter.sol\":784:809  pricefeed.latestRoundData */\n      0xffffffffffffffffffffffffffffffffffffffff\n      and\n      0xfeaf968c\n        /* \"PriceConverter.sol\":784:811  pricefeed.latestRoundData() */\n      mload(0x40)\n      dup2\n      0xffffffff\n      and\n      0xe0\n      shl\n      dup2\n      mstore\n      0x04\n      add\n      0xa0\n      mload(0x40)\n      dup1\n      dup4\n      sub\n      dup2\n      dup7\n      gas\n      staticcall\n      iszero\n      dup1\n      iszero\n      tag_84\n      jumpi\n      returndatasize\n      0x00\n      dup1\n      returndatacopy\n      revert(0x00, returndatasize)\n    tag_84:\n      pop\n      pop\n      pop\n      pop\n      mload(0x40)\n      returndatasize\n      not(0x1f)\n      0x1f\n      dup3\n      add\n      and\n      dup3\n      add\n      dup1\n      0x40\n      mstore\n      pop\n      dup2\n      add\n      swap1\n      tag_85\n      swap2\n      swap1\n      tag_86\n      jump\t// in\n    tag_85:\n        /* \"PriceConverter.sol\":763:811  (, int256 price ,,,)=pricefeed.latestRoundData() */\n      pop\n      pop\n      pop\n      swap2\n      pop\n      pop\n        /* \"PriceConverter.sol\":1001:1005  1e10 */\n      0x02540be400\n        /* \"PriceConverter.sol\":992:997  price */\n      dup2\n        /* \"PriceConverter.sol\":984:1005  uint256(price) * 1e10 */\n      tag_87\n      swap2\n      swap1\n      tag_79\n      jump\t// in\n    tag_87:\n        /* \"PriceConverter.sol\":977:1005  return uint256(price) * 1e10 */\n      swap3\n      pop\n      pop\n      pop\n        /* \"PriceConverter.sol\":362:1013  function getPrice() internal view returns (uint256){... */\n      swap1\n      jump\t// out\n    tag_52:\n      dup3\n      dup1\n      sload\n      dup3\n      dup3\n      sstore\n      swap1\n      0x00\n      mstore\n      keccak256(0x00, 0x20)\n      swap1\n      dup2\n      add\n      swap3\n      dup3\n      iszero\n      tag_88\n      jumpi\n      swap2\n      0x20\n      mul\n      dup3\n      add\n    tag_89:\n      dup3\n      dup2\n      gt\n      iszero\n      tag_90\n      jumpi\n      dup3\n      mload\n      dup3\n      exp(0x0100, 0x00)\n      dup2\n      sload\n      dup2\n      0xffffffffffffffffffffffffffffffffffffffff\n      mul\n      not\n      and\n      swap1\n      dup4\n      0xffffffffffffffffffffffffffffffffffffffff\n      and\n      mul\n      or\n      swap1\n      sstore\n      pop\n      swap2\n      0x20\n      add\n      swap2\n      swap1\n      0x01\n      add\n      swap1\n      jump(tag_89)\n    tag_90:\n    tag_88:\n      pop\n      swap1\n      pop\n      tag_91\n      swap2\n      swap1\n      tag_92\n      jump\t// in\n    tag_91:\n      pop\n      swap1\n      jump\t// out\n    tag_92:\n    tag_93:\n      dup1\n      dup3\n      gt\n      iszero\n      tag_94\n      jumpi\n      0x00\n      dup2\n      0x00\n      swap1\n      sstore\n      pop\n      0x01\n      add\n      jump(tag_93)\n    tag_94:\n      pop\n      swap1\n      jump\t// out\n        /* \"#utility.yul\":88:205   */\n    tag_96:\n        /* \"#utility.yul\":197:198   */\n      0x00\n        /* \"#utility.yul\":194:195   */\n      dup1\n        /* \"#utility.yul\":187:199   */\n      revert\n        /* \"#utility.yul\":334:460   */\n    tag_98:\n        /* \"#utility.yul\":371:378   */\n      0x00\n        /* \"#utility.yul\":411:453   */\n      0xffffffffffffffffffffffffffffffffffffffff\n        /* \"#utility.yul\":404:409   */\n      dup3\n        /* \"#utility.yul\":400:454   */\n      and\n        /* \"#utility.yul\":389:454   */\n      swap1\n      pop\n        /* \"#utility.yul\":334:460   */\n      swap2\n      swap1\n      pop\n      jump\t// out\n        /* \"#utility.yul\":466:562   */\n    tag_99:\n        /* \"#utility.yul\":503:510   */\n      0x00\n        /* \"#utility.yul\":532:556   */\n      tag_134\n        /* \"#utility.yul\":550:555   */\n      dup3\n        /* \"#utility.yul\":532:556   */\n      tag_98\n      jump\t// in\n    tag_134:\n        /* \"#utility.yul\":521:556   */\n      swap1\n      pop\n        /* \"#utility.yul\":466:562   */\n      swap2\n      swap1\n      pop\n      jump\t// out\n        /* \"#utility.yul\":568:690   */\n    tag_100:\n        /* \"#utility.yul\":641:665   */\n      tag_136\n        /* \"#utility.yul\":659:664   */\n      dup2\n        /* \"#utility.yul\":641:665   */\n      tag_99\n      jump\t// in\n    tag_136:\n        /* \"#utility.yul\":634:639   */\n      dup2\n        /* \"#utility.yul\":631:666   */\n      eq\n        /* \"#utility.yul\":621:684   */\n      tag_137\n      jumpi\n        /* \"#utility.yul\":680:681   */\n      0x00\n        /* \"#utility.yul\":677:678   */\n      dup1\n        /* \"#utility.yul\":670:682   */\n      revert\n        /* \"#utility.yul\":621:684   */\n    tag_137:\n        /* \"#utility.yul\":568:690   */\n      pop\n      jump\t// out\n        /* \"#utility.yul\":696:835   */\n    tag_101:\n        /* \"#utility.yul\":742:747   */\n      0x00\n        /* \"#utility.yul\":780:786   */\n      dup2\n        /* \"#utility.yul\":767:787   */\n      calldataload\n        /* \"#utility.yul\":758:787   */\n      swap1\n      pop\n        /* \"#utility.yul\":796:829   */\n      tag_139\n        /* \"#utility.yul\":823:828   */\n      dup2\n        /* \"#utility.yul\":796:829   */\n      tag_100\n      jump\t// in\n    tag_139:\n        /* \"#utility.yul\":696:835   */\n      swap3\n      swap2\n      pop\n      pop\n      jump\t// out\n        /* \"#utility.yul\":841:1170   */\n    tag_14:\n        /* \"#utility.yul\":900:906   */\n      0x00\n        /* \"#utility.yul\":949:951   */\n      0x20\n        /* \"#utility.yul\":937:946   */\n      dup3\n        /* \"#utility.yul\":928:935   */\n      dup5\n        /* \"#utility.yul\":924:947   */\n      sub\n        /* \"#utility.yul\":920:952   */\n      slt\n        /* \"#utility.yul\":917:1036   */\n      iszero\n      tag_141\n      jumpi\n        /* \"#utility.yul\":955:1034   */\n      tag_142\n      tag_96\n      jump\t// in\n    tag_142:\n        /* \"#utility.yul\":917:1036   */\n    tag_141:\n        /* \"#utility.yul\":1075:1076   */\n      0x00\n        /* \"#utility.yul\":1100:1153   */\n      tag_143\n        /* \"#utility.yul\":1145:1152   */\n      dup5\n        /* \"#utility.yul\":1136:1142   */\n      dup3\n        /* \"#utility.yul\":1125:1134   */\n      dup6\n        /* \"#utility.yul\":1121:1143   */\n      add\n        /* \"#utility.yul\":1100:1153   */\n      tag_101\n      jump\t// in\n    tag_143:\n        /* \"#utility.yul\":1090:1153   */\n      swap2\n      pop\n        /* \"#utility.yul\":1046:1163   */\n      pop\n        /* \"#utility.yul\":841:1170   */\n      swap3\n      swap2\n      pop\n      pop\n      jump\t// out\n        /* \"#utility.yul\":1176:1253   */\n    tag_102:\n        /* \"#utility.yul\":1213:1220   */\n      0x00\n        /* \"#utility.yul\":1242:1247   */\n      dup2\n        /* \"#utility.yul\":1231:1247   */\n      swap1\n      pop\n        /* \"#utility.yul\":1176:1253   */\n      swap2\n      swap1\n      pop\n      jump\t// out\n        /* \"#utility.yul\":1259:1377   */\n    tag_103:\n        /* \"#utility.yul\":1346:1370   */\n      tag_146\n        /* \"#utility.yul\":1364:1369   */\n      dup2\n        /* \"#utility.yul\":1346:1370   */\n      tag_102\n      jump\t// in\n    tag_146:\n        /* \"#utility.yul\":1341:1344   */\n      dup3\n        /* \"#utility.yul\":1334:1371   */\n      mstore\n        /* \"#utility.yul\":1259:1377   */\n      pop\n      pop\n      jump\t// out\n        /* \"#utility.yul\":1383:1605   */\n    tag_17:\n        /* \"#utility.yul\":1476:1480   */\n      0x00\n        /* \"#utility.yul\":1514:1516   */\n      0x20\n        /* \"#utility.yul\":1503:1512   */\n      dup3\n        /* \"#utility.yul\":1499:1517   */\n      add\n        /* \"#utility.yul\":1491:1517   */\n      swap1\n      pop\n        /* \"#utility.yul\":1527:1598   */\n      tag_148\n        /* \"#utility.yul\":1595:1596   */\n      0x00\n        /* \"#utility.yul\":1584:1593   */\n      dup4\n        /* \"#utility.yul\":1580:1597   */\n      add\n        /* \"#utility.yul\":1571:1577   */\n      dup5\n        /* \"#utility.yul\":1527:1598   */\n      tag_103\n      jump\t// in\n    tag_148:\n        /* \"#utility.yul\":1383:1605   */\n      swap3\n      swap2\n      pop\n      pop\n      jump\t// out\n        /* \"#utility.yul\":1611:1729   */\n    tag_104:\n        /* \"#utility.yul\":1698:1722   */\n      tag_150\n        /* \"#utility.yul\":1716:1721   */\n      dup2\n        /* \"#utility.yul\":1698:1722   */\n      tag_99\n      jump\t// in\n    tag_150:\n        /* \"#utility.yul\":1693:1696   */\n      dup3\n        /* \"#utility.yul\":1686:1723   */\n      mstore\n        /* \"#utility.yul\":1611:1729   */\n      pop\n      pop\n      jump\t// out\n        /* \"#utility.yul\":1735:1957   */\n    tag_24:\n        /* \"#utility.yul\":1828:1832   */\n      0x00\n        /* \"#utility.yul\":1866:1868   */\n      0x20\n        /* \"#utility.yul\":1855:1864   */\n      dup3\n        /* \"#utility.yul\":1851:1869   */\n      add\n        /* \"#utility.yul\":1843:1869   */\n      swap1\n      pop\n        /* \"#utility.yul\":1879:1950   */\n      tag_152\n        /* \"#utility.yul\":1947:1948   */\n      0x00\n        /* \"#utility.yul\":1936:1945   */\n      dup4\n        /* \"#utility.yul\":1932:1949   */\n      add\n        /* \"#utility.yul\":1923:1929   */\n      dup5\n        /* \"#utility.yul\":1879:1950   */\n      tag_104\n      jump\t// in\n    tag_152:\n        /* \"#utility.yul\":1735:1957   */\n      swap3\n      swap2\n      pop\n      pop\n      jump\t// out\n        /* \"#utility.yul\":1963:2085   */\n    tag_105:\n        /* \"#utility.yul\":2036:2060   */\n      tag_154\n        /* \"#utility.yul\":2054:2059   */\n      dup2\n        /* \"#utility.yul\":2036:2060   */\n      tag_102\n      jump\t// in\n    tag_154:\n        /* \"#utility.yul\":2029:2034   */\n      dup2\n        /* \"#utility.yul\":2026:2061   */\n      eq\n        /* \"#utility.yul\":2016:2079   */\n      tag_155\n      jumpi\n        /* \"#utility.yul\":2075:2076   */\n      0x00\n        /* \"#utility.yul\":2072:2073   */\n      dup1\n        /* \"#utility.yul\":2065:2077   */\n      revert\n        /* \"#utility.yul\":2016:2079   */\n    tag_155:\n        /* \"#utility.yul\":1963:2085   */\n      pop\n      jump\t// out\n        /* \"#utility.yul\":2091:2230   */\n    tag_106:\n        /* \"#utility.yul\":2137:2142   */\n      0x00\n        /* \"#utility.yul\":2175:2181   */\n      dup2\n        /* \"#utility.yul\":2162:2182   */\n      calldataload\n        /* \"#utility.yul\":2153:2182   */\n      swap1\n      pop\n        /* \"#utility.yul\":2191:2224   */\n      tag_157\n        /* \"#utility.yul\":2218:2223   */\n      dup2\n        /* \"#utility.yul\":2191:2224   */\n      tag_105\n      jump\t// in\n    tag_157:\n        /* \"#utility.yul\":2091:2230   */\n      swap3\n      swap2\n      pop\n      pop\n      jump\t// out\n        /* \"#utility.yul\":2236:2565   */\n    tag_28:\n        /* \"#utility.yul\":2295:2301   */\n      0x00\n        /* \"#utility.yul\":2344:2346   */\n      0x20\n        /* \"#utility.yul\":2332:2341   */\n      dup3\n        /* \"#utility.yul\":2323:2330   */\n      dup5\n        /* \"#utility.yul\":2319:2342   */\n      sub\n        /* \"#utility.yul\":2315:2347   */\n      slt\n        /* \"#utility.yul\":2312:2431   */\n      iszero\n      tag_159\n      jumpi\n        /* \"#utility.yul\":2350:2429   */\n      tag_160\n      tag_96\n      jump\t// in\n    tag_160:\n        /* \"#utility.yul\":2312:2431   */\n    tag_159:\n        /* \"#utility.yul\":2470:2471   */\n      0x00\n        /* \"#utility.yul\":2495:2548   */\n      tag_161\n        /* \"#utility.yul\":2540:2547   */\n      dup5\n        /* \"#utility.yul\":2531:2537   */\n      dup3\n        /* \"#utility.yul\":2520:2529   */\n      dup6\n        /* \"#utility.yul\":2516:2538   */\n      add\n        /* \"#utility.yul\":2495:2548   */\n      tag_106\n      jump\t// in\n    tag_161:\n        /* \"#utility.yul\":2485:2548   */\n      swap2\n      pop\n        /* \"#utility.yul\":2441:2558   */\n      pop\n        /* \"#utility.yul\":2236:2565   */\n      swap3\n      swap2\n      pop\n      pop\n      jump\t// out\n        /* \"#utility.yul\":2571:2740   */\n    tag_107:\n        /* \"#utility.yul\":2655:2666   */\n      0x00\n        /* \"#utility.yul\":2689:2695   */\n      dup3\n        /* \"#utility.yul\":2684:2687   */\n      dup3\n        /* \"#utility.yul\":2677:2696   */\n      mstore\n        /* \"#utility.yul\":2729:2733   */\n      0x20\n        /* \"#utility.yul\":2724:2727   */\n      dup3\n        /* \"#utility.yul\":2720:2734   */\n      add\n        /* \"#utility.yul\":2705:2734   */\n      swap1\n      pop\n        /* \"#utility.yul\":2571:2740   */\n      swap3\n      swap2\n      pop\n      pop\n      jump\t// out\n        /* \"#utility.yul\":2746:2915   */\n    tag_108:\n        /* \"#utility.yul\":2886:2907   */\n      0x53656e646572206973206e6f74206f776e657200000000000000000000000000\n        /* \"#utility.yul\":2882:2883   */\n      0x00\n        /* \"#utility.yul\":2874:2880   */\n      dup3\n        /* \"#utility.yul\":2870:2884   */\n      add\n        /* \"#utility.yul\":2863:2908   */\n      mstore\n        /* \"#utility.yul\":2746:2915   */\n      pop\n      jump\t// out\n        /* \"#utility.yul\":2921:3287   */\n    tag_109:\n        /* \"#utility.yul\":3063:3066   */\n      0x00\n        /* \"#utility.yul\":3084:3151   */\n      tag_165\n        /* \"#utility.yul\":3148:3150   */\n      0x13\n        /* \"#utility.yul\":3143:3146   */\n      dup4\n        /* \"#utility.yul\":3084:3151   */\n      tag_107\n      jump\t// in\n    tag_165:\n        /* \"#utility.yul\":3077:3151   */\n      swap2\n      pop\n        /* \"#utility.yul\":3160:3253   */\n      tag_166\n        /* \"#utility.yul\":3249:3252   */\n      dup3\n        /* \"#utility.yul\":3160:3253   */\n      tag_108\n      jump\t// in\n    tag_166:\n        /* \"#utility.yul\":3278:3280   */\n      0x20\n        /* \"#utility.yul\":3273:3276   */\n      dup3\n        /* \"#utility.yul\":3269:3281   */\n      add\n        /* \"#utility.yul\":3262:3281   */\n      swap1\n      pop\n        /* \"#utility.yul\":2921:3287   */\n      swap2\n      swap1\n      pop\n      jump\t// out\n        /* \"#utility.yul\":3293:3712   */\n    tag_38:\n        /* \"#utility.yul\":3459:3463   */\n      0x00\n        /* \"#utility.yul\":3497:3499   */\n      0x20\n        /* \"#utility.yul\":3486:3495   */\n      dup3\n        /* \"#utility.yul\":3482:3500   */\n      add\n        /* \"#utility.yul\":3474:3500   */\n      swap1\n      pop\n        /* \"#utility.yul\":3546:3555   */\n      dup2\n        /* \"#utility.yul\":3540:3544   */\n      dup2\n        /* \"#utility.yul\":3536:3556   */\n      sub\n        /* \"#utility.yul\":3532:3533   */\n      0x00\n        /* \"#utility.yul\":3521:3530   */\n      dup4\n        /* \"#utility.yul\":3517:3534   */\n      add\n        /* \"#utility.yul\":3510:3557   */\n      mstore\n        /* \"#utility.yul\":3574:3705   */\n      tag_168\n        /* \"#utility.yul\":3700:3704   */\n      dup2\n        /* \"#utility.yul\":3574:3705   */\n      tag_109\n      jump\t// in\n    tag_168:\n        /* \"#utility.yul\":3566:3705   */\n      swap1\n      pop\n        /* \"#utility.yul\":3293:3712   */\n      swap2\n      swap1\n      pop\n      jump\t// out\n        /* \"#utility.yul\":3718:3898   */\n    tag_45:\n        /* \"#utility.yul\":3766:3843   */\n      0x4e487b7100000000000000000000000000000000000000000000000000000000\n        /* \"#utility.yul\":3763:3764   */\n      0x00\n        /* \"#utility.yul\":3756:3844   */\n      mstore\n        /* \"#utility.yul\":3863:3867   */\n      0x32\n        /* \"#utility.yul\":3860:3861   */\n      0x04\n        /* \"#utility.yul\":3853:3868   */\n      mstore\n        /* \"#utility.yul\":3887:3891   */\n      0x24\n        /* \"#utility.yul\":3884:3885   */\n      0x00\n        /* \"#utility.yul\":3877:3892   */\n      revert\n        /* \"#utility.yul\":3904:4084   */\n    tag_49:\n        /* \"#utility.yul\":3952:4029   */\n      0x4e487b7100000000000000000000000000000000000000000000000000000000\n        /* \"#utility.yul\":3949:3950   */\n      0x00\n        /* \"#utility.yul\":3942:4030   */\n      mstore\n        /* \"#utility.yul\":4049:4053   */\n      0x41\n        /* \"#utility.yul\":4046:4047   */\n      0x04\n        /* \"#utility.yul\":4039:4054   */\n      mstore\n        /* \"#utility.yul\":4073:4077   */\n      0x24\n        /* \"#utility.yul\":4070:4071   */\n      0x00\n        /* \"#utility.yul\":4063:4078   */\n      revert\n        /* \"#utility.yul\":4090:4237   */\n    tag_110:\n        /* \"#utility.yul\":4191:4202   */\n      0x00\n        /* \"#utility.yul\":4228:4231   */\n      dup2\n        /* \"#utility.yul\":4213:4231   */\n      swap1\n      pop\n        /* \"#utility.yul\":4090:4237   */\n      swap3\n      swap2\n      pop\n      pop\n      jump\t// out\n        /* \"#utility.yul\":4243:4357   */\n    tag_111:\n      pop\n      jump\t// out\n        /* \"#utility.yul\":4363:4761   */\n    tag_112:\n        /* \"#utility.yul\":4522:4525   */\n      0x00\n        /* \"#utility.yul\":4543:4626   */\n      tag_174\n        /* \"#utility.yul\":4624:4625   */\n      0x00\n        /* \"#utility.yul\":4619:4622   */\n      dup4\n        /* \"#utility.yul\":4543:4626   */\n      tag_110\n      jump\t// in\n    tag_174:\n        /* \"#utility.yul\":4536:4626   */\n      swap2\n      pop\n        /* \"#utility.yul\":4635:4728   */\n      tag_175\n        /* \"#utility.yul\":4724:4727   */\n      dup3\n        /* \"#utility.yul\":4635:4728   */\n      tag_111\n      jump\t// in\n    tag_175:\n        /* \"#utility.yul\":4753:4754   */\n      0x00\n        /* \"#utility.yul\":4748:4751   */\n      dup3\n        /* \"#utility.yul\":4744:4755   */\n      add\n        /* \"#utility.yul\":4737:4755   */\n      swap1\n      pop\n        /* \"#utility.yul\":4363:4761   */\n      swap2\n      swap1\n      pop\n      jump\t// out\n        /* \"#utility.yul\":4767:5146   */\n    tag_54:\n        /* \"#utility.yul\":4951:4954   */\n      0x00\n        /* \"#utility.yul\":4973:5120   */\n      tag_177\n        /* \"#utility.yul\":5116:5119   */\n      dup3\n        /* \"#utility.yul\":4973:5120   */\n      tag_112\n      jump\t// in\n    tag_177:\n        /* \"#utility.yul\":4966:5120   */\n      swap2\n      pop\n        /* \"#utility.yul\":5137:5140   */\n      dup2\n        /* \"#utility.yul\":5130:5140   */\n      swap1\n      pop\n        /* \"#utility.yul\":4767:5146   */\n      swap2\n      swap1\n      pop\n      jump\t// out\n        /* \"#utility.yul\":5152:5313   */\n    tag_113:\n        /* \"#utility.yul\":5292:5305   */\n      0x63616c6c5f4661696c6564000000000000000000000000000000000000000000\n        /* \"#utility.yul\":5288:5289   */\n      0x00\n        /* \"#utility.yul\":5280:5286   */\n      dup3\n        /* \"#utility.yul\":5276:5290   */\n      add\n        /* \"#utility.yul\":5269:5306   */\n      mstore\n        /* \"#utility.yul\":5152:5313   */\n      pop\n      jump\t// out\n        /* \"#utility.yul\":5319:5685   */\n    tag_114:\n        /* \"#utility.yul\":5461:5464   */\n      0x00\n        /* \"#utility.yul\":5482:5549   */\n      tag_180\n        /* \"#utility.yul\":5546:5548   */\n      0x0b\n        /* \"#utility.yul\":5541:5544   */\n      dup4\n        /* \"#utility.yul\":5482:5549   */\n      tag_107\n      jump\t// in\n    tag_180:\n        /* \"#utility.yul\":5475:5549   */\n      swap2\n      pop\n        /* \"#utility.yul\":5558:5651   */\n      tag_181\n        /* \"#utility.yul\":5647:5650   */\n      dup3\n        /* \"#utility.yul\":5558:5651   */\n      tag_113\n      jump\t// in\n    tag_181:\n        /* \"#utility.yul\":5676:5678   */\n      0x20\n        /* \"#utility.yul\":5671:5674   */\n      dup3\n        /* \"#utility.yul\":5667:5679   */\n      add\n        /* \"#utility.yul\":5660:5679   */\n      swap1\n      pop\n        /* \"#utility.yul\":5319:5685   */\n      swap2\n      swap1\n      pop\n      jump\t// out\n        /* \"#utility.yul\":5691:6110   */\n    tag_60:\n        /* \"#utility.yul\":5857:5861   */\n      0x00\n        /* \"#utility.yul\":5895:5897   */\n      0x20\n        /* \"#utility.yul\":5884:5893   */\n      dup3\n        /* \"#utility.yul\":5880:5898   */\n      add\n        /* \"#utility.yul\":5872:5898   */\n      swap1\n      pop\n        /* \"#utility.yul\":5944:5953   */\n      dup2\n        /* \"#utility.yul\":5938:5942   */\n      dup2\n        /* \"#utility.yul\":5934:5954   */\n      sub\n        /* \"#utility.yul\":5930:5931   */\n      0x00\n        /* \"#utility.yul\":5919:5928   */\n      dup4\n        /* \"#utility.yul\":5915:5932   */\n      add\n        /* \"#utility.yul\":5908:5955   */\n      mstore\n        /* \"#utility.yul\":5972:6103   */\n      tag_183\n        /* \"#utility.yul\":6098:6102   */\n      dup2\n        /* \"#utility.yul\":5972:6103   */\n      tag_114\n      jump\t// in\n    tag_183:\n        /* \"#utility.yul\":5964:6103   */\n      swap1\n      pop\n        /* \"#utility.yul\":5691:6110   */\n      swap2\n      swap1\n      pop\n      jump\t// out\n        /* \"#utility.yul\":6116:6278   */\n    tag_115:\n        /* \"#utility.yul\":6256:6270   */\n      0x4e6f204554482073656e74210000000000000000000000000000000000000000\n        /* \"#utility.yul\":6252:6253   */\n      0x00\n        /* \"#utility.yul\":6244:6250   */\n      dup3\n        /* \"#utility.yul\":6240:6254   */\n      add\n        /* \"#utility.yul\":6233:6271   */\n      mstore\n        /* \"#utility.yul\":6116:6278   */\n      pop\n      jump\t// out\n        /* \"#utility.yul\":6284:6650   */\n    tag_116:\n        /* \"#utility.yul\":6426:6429   */\n      0x00\n        /* \"#utility.yul\":6447:6514   */\n      tag_186\n        /* \"#utility.yul\":6511:6513   */\n      0x0c\n        /* \"#utility.yul\":6506:6509   */\n      dup4\n        /* \"#utility.yul\":6447:6514   */\n      tag_107\n      jump\t// in\n    tag_186:\n        /* \"#utility.yul\":6440:6514   */\n      swap2\n      pop\n        /* \"#utility.yul\":6523:6616   */\n      tag_187\n        /* \"#utility.yul\":6612:6615   */\n      dup3\n        /* \"#utility.yul\":6523:6616   */\n      tag_115\n      jump\t// in\n    tag_187:\n        /* \"#utility.yul\":6641:6643   */\n      0x20\n        /* \"#utility.yul\":6636:6639   */\n      dup3\n        /* \"#utility.yul\":6632:6644   */\n      add\n        /* \"#utility.yul\":6625:6644   */\n      swap1\n      pop\n        /* \"#utility.yul\":6284:6650   */\n      swap2\n      swap1\n      pop\n      jump\t// out\n        /* \"#utility.yul\":6656:7075   */\n    tag_64:\n        /* \"#utility.yul\":6822:6826   */\n      0x00\n        /* \"#utility.yul\":6860:6862   */\n      0x20\n        /* \"#utility.yul\":6849:6858   */\n      dup3\n        /* \"#utility.yul\":6845:6863   */\n      add\n        /* \"#utility.yul\":6837:6863   */\n      swap1\n      pop\n        /* \"#utility.yul\":6909:6918   */\n      dup2\n        /* \"#utility.yul\":6903:6907   */\n      dup2\n        /* \"#utility.yul\":6899:6919   */\n      sub\n        /* \"#utility.yul\":6895:6896   */\n      0x00\n        /* \"#utility.yul\":6884:6893   */\n      dup4\n        /* \"#utility.yul\":6880:6897   */\n      add\n        /* \"#utility.yul\":6873:6920   */\n      mstore\n        /* \"#utility.yul\":6937:7068   */\n      tag_189\n        /* \"#utility.yul\":7063:7067   */\n      dup2\n        /* \"#utility.yul\":6937:7068   */\n      tag_116\n      jump\t// in\n    tag_189:\n        /* \"#utility.yul\":6929:7068   */\n      swap1\n      pop\n        /* \"#utility.yul\":6656:7075   */\n      swap2\n      swap1\n      pop\n      jump\t// out\n        /* \"#utility.yul\":7081:7252   */\n    tag_117:\n        /* \"#utility.yul\":7221:7244   */\n      0x4469646e742073656e6420656e6f756768204554480000000000000000000000\n        /* \"#utility.yul\":7217:7218   */\n      0x00\n        /* \"#utility.yul\":7209:7215   */\n      dup3\n        /* \"#utility.yul\":7205:7219   */\n      add\n        /* \"#utility.yul\":7198:7245   */\n      mstore\n        /* \"#utility.yul\":7081:7252   */\n      pop\n      jump\t// out\n        /* \"#utility.yul\":7258:7624   */\n    tag_118:\n        /* \"#utility.yul\":7400:7403   */\n      0x00\n        /* \"#utility.yul\":7421:7488   */\n      tag_192\n        /* \"#utility.yul\":7485:7487   */\n      0x15\n        /* \"#utility.yul\":7480:7483   */\n      dup4\n        /* \"#utility.yul\":7421:7488   */\n      tag_107\n      jump\t// in\n    tag_192:\n        /* \"#utility.yul\":7414:7488   */\n      swap2\n      pop\n        /* \"#utility.yul\":7497:7590   */\n      tag_193\n        /* \"#utility.yul\":7586:7589   */\n      dup3\n        /* \"#utility.yul\":7497:7590   */\n      tag_117\n      jump\t// in\n    tag_193:\n        /* \"#utility.yul\":7615:7617   */\n      0x20\n        /* \"#utility.yul\":7610:7613   */\n      dup3\n        /* \"#utility.yul\":7606:7618   */\n      add\n        /* \"#utility.yul\":7599:7618   */\n      swap1\n      pop\n        /* \"#utility.yul\":7258:7624   */\n      swap2\n      swap1\n      pop\n      jump\t// out\n        /* \"#utility.yul\":7630:8049   */\n    tag_69:\n        /* \"#utility.yul\":7796:7800   */\n      0x00\n        /* \"#utility.yul\":7834:7836   */\n      0x20\n        /* \"#utility.yul\":7823:7832   */\n      dup3\n        /* \"#utility.yul\":7819:7837   */\n      add\n        /* \"#utility.yul\":7811:7837   */\n      swap1\n      pop\n        /* \"#utility.yul\":7883:7892   */\n      dup2\n        /* \"#utility.yul\":7877:7881   */\n      dup2\n        /* \"#utility.yul\":7873:7893   */\n      sub\n        /* \"#utility.yul\":7869:7870   */\n      0x00\n        /* \"#utility.yul\":7858:7867   */\n      dup4\n        /* \"#utility.yul\":7854:7871   */\n      add\n        /* \"#utility.yul\":7847:7894   */\n      mstore\n        /* \"#utility.yul\":7911:8042   */\n      tag_195\n        /* \"#utility.yul\":8037:8041   */\n      dup2\n        /* \"#utility.yul\":7911:8042   */\n      tag_118\n      jump\t// in\n    tag_195:\n        /* \"#utility.yul\":7903:8042   */\n      swap1\n      pop\n        /* \"#utility.yul\":7630:8049   */\n      swap2\n      swap1\n      pop\n      jump\t// out\n        /* \"#utility.yul\":8055:8235   */\n    tag_119:\n        /* \"#utility.yul\":8103:8180   */\n      0x4e487b7100000000000000000000000000000000000000000000000000000000\n        /* \"#utility.yul\":8100:8101   */\n      0x00\n        /* \"#utility.yul\":8093:8181   */\n      mstore\n        /* \"#utility.yul\":8200:8204   */\n      0x11\n        /* \"#utility.yul\":8197:8198   */\n      0x04\n        /* \"#utility.yul\":8190:8205   */\n      mstore\n        /* \"#utility.yul\":8224:8228   */\n      0x24\n        /* \"#utility.yul\":8221:8222   */\n      0x00\n        /* \"#utility.yul\":8214:8229   */\n      revert\n        /* \"#utility.yul\":8241:8432   */\n    tag_72:\n        /* \"#utility.yul\":8281:8284   */\n      0x00\n        /* \"#utility.yul\":8300:8320   */\n      tag_198\n        /* \"#utility.yul\":8318:8319   */\n      dup3\n        /* \"#utility.yul\":8300:8320   */\n      tag_102\n      jump\t// in\n    tag_198:\n        /* \"#utility.yul\":8295:8320   */\n      swap2\n      pop\n        /* \"#utility.yul\":8334:8354   */\n      tag_199\n        /* \"#utility.yul\":8352:8353   */\n      dup4\n        /* \"#utility.yul\":8334:8354   */\n      tag_102\n      jump\t// in\n    tag_199:\n        /* \"#utility.yul\":8329:8354   */\n      swap3\n      pop\n        /* \"#utility.yul\":8377:8378   */\n      dup3\n        /* \"#utility.yul\":8374:8375   */\n      dup3\n        /* \"#utility.yul\":8370:8379   */\n      add\n        /* \"#utility.yul\":8363:8379   */\n      swap1\n      pop\n        /* \"#utility.yul\":8398:8401   */\n      dup1\n        /* \"#utility.yul\":8395:8396   */\n      dup3\n        /* \"#utility.yul\":8392:8402   */\n      gt\n        /* \"#utility.yul\":8389:8425   */\n      iszero\n      tag_200\n      jumpi\n        /* \"#utility.yul\":8405:8423   */\n      tag_201\n      tag_119\n      jump\t// in\n    tag_201:\n        /* \"#utility.yul\":8389:8425   */\n    tag_200:\n        /* \"#utility.yul\":8241:8432   */\n      swap3\n      swap2\n      pop\n      pop\n      jump\t// out\n        /* \"#utility.yul\":8438:8848   */\n    tag_79:\n        /* \"#utility.yul\":8478:8485   */\n      0x00\n        /* \"#utility.yul\":8501:8521   */\n      tag_203\n        /* \"#utility.yul\":8519:8520   */\n      dup3\n        /* \"#utility.yul\":8501:8521   */\n      tag_102\n      jump\t// in\n    tag_203:\n        /* \"#utility.yul\":8496:8521   */\n      swap2\n      pop\n        /* \"#utility.yul\":8535:8555   */\n      tag_204\n        /* \"#utility.yul\":8553:8554   */\n      dup4\n        /* \"#utility.yul\":8535:8555   */\n      tag_102\n      jump\t// in\n    tag_204:\n        /* \"#utility.yul\":8530:8555   */\n      swap3\n      pop\n        /* \"#utility.yul\":8590:8591   */\n      dup3\n        /* \"#utility.yul\":8587:8588   */\n      dup3\n        /* \"#utility.yul\":8583:8592   */\n      mul\n        /* \"#utility.yul\":8612:8642   */\n      tag_205\n        /* \"#utility.yul\":8630:8641   */\n      dup2\n        /* \"#utility.yul\":8612:8642   */\n      tag_102\n      jump\t// in\n    tag_205:\n        /* \"#utility.yul\":8601:8642   */\n      swap2\n      pop\n        /* \"#utility.yul\":8791:8792   */\n      dup3\n        /* \"#utility.yul\":8782:8789   */\n      dup3\n        /* \"#utility.yul\":8778:8793   */\n      div\n        /* \"#utility.yul\":8775:8776   */\n      dup5\n        /* \"#utility.yul\":8772:8794   */\n      eq\n        /* \"#utility.yul\":8752:8753   */\n      dup4\n        /* \"#utility.yul\":8745:8754   */\n      iszero\n        /* \"#utility.yul\":8725:8808   */\n      or\n        /* \"#utility.yul\":8702:8841   */\n      tag_206\n      jumpi\n        /* \"#utility.yul\":8821:8839   */\n      tag_207\n      tag_119\n      jump\t// in\n    tag_207:\n        /* \"#utility.yul\":8702:8841   */\n    tag_206:\n        /* \"#utility.yul\":8486:8848   */\n      pop\n        /* \"#utility.yul\":8438:8848   */\n      swap3\n      swap2\n      pop\n      pop\n      jump\t// out\n        /* \"#utility.yul\":8854:9034   */\n    tag_120:\n        /* \"#utility.yul\":8902:8979   */\n      0x4e487b7100000000000000000000000000000000000000000000000000000000\n        /* \"#utility.yul\":8899:8900   */\n      0x00\n        /* \"#utility.yul\":8892:8980   */\n      mstore\n        /* \"#utility.yul\":8999:9003   */\n      0x12\n        /* \"#utility.yul\":8996:8997   */\n      0x04\n        /* \"#utility.yul\":8989:9004   */\n      mstore\n        /* \"#utility.yul\":9023:9027   */\n      0x24\n        /* \"#utility.yul\":9020:9021   */\n      0x00\n        /* \"#utility.yul\":9013:9028   */\n      revert\n        /* \"#utility.yul\":9040:9225   */\n    tag_81:\n        /* \"#utility.yul\":9080:9081   */\n      0x00\n        /* \"#utility.yul\":9097:9117   */\n      tag_210\n        /* \"#utility.yul\":9115:9116   */\n      dup3\n        /* \"#utility.yul\":9097:9117   */\n      tag_102\n      jump\t// in\n    tag_210:\n        /* \"#utility.yul\":9092:9117   */\n      swap2\n      pop\n        /* \"#utility.yul\":9131:9151   */\n      tag_211\n        /* \"#utility.yul\":9149:9150   */\n      dup4\n        /* \"#utility.yul\":9131:9151   */\n      tag_102\n      jump\t// in\n    tag_211:\n        /* \"#utility.yul\":9126:9151   */\n      swap3\n      pop\n        /* \"#utility.yul\":9170:9171   */\n      dup3\n        /* \"#utility.yul\":9160:9195   */\n      tag_212\n      jumpi\n        /* \"#utility.yul\":9175:9193   */\n      tag_213\n      tag_120\n      jump\t// in\n    tag_213:\n        /* \"#utility.yul\":9160:9195   */\n    tag_212:\n        /* \"#utility.yul\":9217:9218   */\n      dup3\n        /* \"#utility.yul\":9214:9215   */\n      dup3\n        /* \"#utility.yul\":9210:9219   */\n      div\n        /* \"#utility.yul\":9205:9219   */\n      swap1\n      pop\n        /* \"#utility.yul\":9040:9225   */\n      swap3\n      swap2\n      pop\n      pop\n      jump\t// out\n        /* \"#utility.yul\":9231:9336   */\n    tag_121:\n        /* \"#utility.yul\":9267:9274   */\n      0x00\n        /* \"#utility.yul\":9307:9329   */\n      0xffffffffffffffffffff\n        /* \"#utility.yul\":9300:9305   */\n      dup3\n        /* \"#utility.yul\":9296:9330   */\n      and\n        /* \"#utility.yul\":9285:9330   */\n      swap1\n      pop\n        /* \"#utility.yul\":9231:9336   */\n      swap2\n      swap1\n      pop\n      jump\t// out\n        /* \"#utility.yul\":9342:9462   */\n    tag_122:\n        /* \"#utility.yul\":9414:9437   */\n      tag_216\n        /* \"#utility.yul\":9431:9436   */\n      dup2\n        /* \"#utility.yul\":9414:9437   */\n      tag_121\n      jump\t// in\n    tag_216:\n        /* \"#utility.yul\":9407:9412   */\n      dup2\n        /* \"#utility.yul\":9404:9438   */\n      eq\n        /* \"#utility.yul\":9394:9456   */\n      tag_217\n      jumpi\n        /* \"#utility.yul\":9452:9453   */\n      0x00\n        /* \"#utility.yul\":9449:9450   */\n      dup1\n        /* \"#utility.yul\":9442:9454   */\n      revert\n        /* \"#utility.yul\":9394:9456   */\n    tag_217:\n        /* \"#utility.yul\":9342:9462   */\n      pop\n      jump\t// out\n        /* \"#utility.yul\":9468:9609   */\n    tag_123:\n        /* \"#utility.yul\":9524:9529   */\n      0x00\n        /* \"#utility.yul\":9555:9561   */\n      dup2\n        /* \"#utility.yul\":9549:9562   */\n      mload\n        /* \"#utility.yul\":9540:9562   */\n      swap1\n      pop\n        /* \"#utility.yul\":9571:9603   */\n      tag_219\n        /* \"#utility.yul\":9597:9602   */\n      dup2\n        /* \"#utility.yul\":9571:9603   */\n      tag_122\n      jump\t// in\n    tag_219:\n        /* \"#utility.yul\":9468:9609   */\n      swap3\n      swap2\n      pop\n      pop\n      jump\t// out\n        /* \"#utility.yul\":9615:9691   */\n    tag_124:\n        /* \"#utility.yul\":9651:9658   */\n      0x00\n        /* \"#utility.yul\":9680:9685   */\n      dup2\n        /* \"#utility.yul\":9669:9685   */\n      swap1\n      pop\n        /* \"#utility.yul\":9615:9691   */\n      swap2\n      swap1\n      pop\n      jump\t// out\n        /* \"#utility.yul\":9697:9817   */\n    tag_125:\n        /* \"#utility.yul\":9769:9792   */\n      tag_222\n        /* \"#utility.yul\":9786:9791   */\n      dup2\n        /* \"#utility.yul\":9769:9792   */\n      tag_124\n      jump\t// in\n    tag_222:\n        /* \"#utility.yul\":9762:9767   */\n      dup2\n        /* \"#utility.yul\":9759:9793   */\n      eq\n        /* \"#utility.yul\":9749:9811   */\n      tag_223\n      jumpi\n        /* \"#utility.yul\":9807:9808   */\n      0x00\n        /* \"#utility.yul\":9804:9805   */\n      dup1\n        /* \"#utility.yul\":9797:9809   */\n      revert\n        /* \"#utility.yul\":9749:9811   */\n    tag_223:\n        /* \"#utility.yul\":9697:9817   */\n      pop\n      jump\t// out\n        /* \"#utility.yul\":9823:9964   */\n    tag_126:\n        /* \"#utility.yul\":9879:9884   */\n      0x00\n        /* \"#utility.yul\":9910:9916   */\n      dup2\n        /* \"#utility.yul\":9904:9917   */\n      mload\n        /* \"#utility.yul\":9895:9917   */\n      swap1\n      pop\n        /* \"#utility.yul\":9926:9958   */\n      tag_225\n        /* \"#utility.yul\":9952:9957   */\n      dup2\n        /* \"#utility.yul\":9926:9958   */\n      tag_125\n      jump\t// in\n    tag_225:\n        /* \"#utility.yul\":9823:9964   */\n      swap3\n      swap2\n      pop\n      pop\n      jump\t// out\n        /* \"#utility.yul\":9970:10113   */\n    tag_127:\n        /* \"#utility.yul\":10027:10032   */\n      0x00\n        /* \"#utility.yul\":10058:10064   */\n      dup2\n        /* \"#utility.yul\":10052:10065   */\n      mload\n        /* \"#utility.yul\":10043:10065   */\n      swap1\n      pop\n        /* \"#utility.yul\":10074:10107   */\n      tag_227\n        /* \"#utility.yul\":10101:10106   */\n      dup2\n        /* \"#utility.yul\":10074:10107   */\n      tag_105\n      jump\t// in\n    tag_227:\n        /* \"#utility.yul\":9970:10113   */\n      swap3\n      swap2\n      pop\n      pop\n      jump\t// out\n        /* \"#utility.yul\":10119:11090   */\n    tag_86:\n        /* \"#utility.yul\":10222:10228   */\n      0x00\n        /* \"#utility.yul\":10230:10236   */\n      dup1\n        /* \"#utility.yul\":10238:10244   */\n      0x00\n        /* \"#utility.yul\":10246:10252   */\n      dup1\n        /* \"#utility.yul\":10254:10260   */\n      0x00\n        /* \"#utility.yul\":10303:10306   */\n      0xa0\n        /* \"#utility.yul\":10291:10300   */\n      dup7\n        /* \"#utility.yul\":10282:10289   */\n      dup9\n        /* \"#utility.yul\":10278:10301   */\n      sub\n        /* \"#utility.yul\":10274:10307   */\n      slt\n        /* \"#utility.yul\":10271:10391   */\n      iszero\n      tag_229\n      jumpi\n        /* \"#utility.yul\":10310:10389   */\n      tag_230\n      tag_96\n      jump\t// in\n    tag_230:\n        /* \"#utility.yul\":10271:10391   */\n    tag_229:\n        /* \"#utility.yul\":10430:10431   */\n      0x00\n        /* \"#utility.yul\":10455:10518   */\n      tag_231\n        /* \"#utility.yul\":10510:10517   */\n      dup9\n        /* \"#utility.yul\":10501:10507   */\n      dup3\n        /* \"#utility.yul\":10490:10499   */\n      dup10\n        /* \"#utility.yul\":10486:10508   */\n      add\n        /* \"#utility.yul\":10455:10518   */\n      tag_123\n      jump\t// in\n    tag_231:\n        /* \"#utility.yul\":10445:10518   */\n      swap6\n      pop\n        /* \"#utility.yul\":10401:10528   */\n      pop\n        /* \"#utility.yul\":10567:10569   */\n      0x20\n        /* \"#utility.yul\":10593:10656   */\n      tag_232\n        /* \"#utility.yul\":10648:10655   */\n      dup9\n        /* \"#utility.yul\":10639:10645   */\n      dup3\n        /* \"#utility.yul\":10628:10637   */\n      dup10\n        /* \"#utility.yul\":10624:10646   */\n      add\n        /* \"#utility.yul\":10593:10656   */\n      tag_126\n      jump\t// in\n    tag_232:\n        /* \"#utility.yul\":10583:10656   */\n      swap5\n      pop\n        /* \"#utility.yul\":10538:10666   */\n      pop\n        /* \"#utility.yul\":10705:10707   */\n      0x40\n        /* \"#utility.yul\":10731:10795   */\n      tag_233\n        /* \"#utility.yul\":10787:10794   */\n      dup9\n        /* \"#utility.yul\":10778:10784   */\n      dup3\n        /* \"#utility.yul\":10767:10776   */\n      dup10\n        /* \"#utility.yul\":10763:10785   */\n      add\n        /* \"#utility.yul\":10731:10795   */\n      tag_127\n      jump\t// in\n    tag_233:\n        /* \"#utility.yul\":10721:10795   */\n      swap4\n      pop\n        /* \"#utility.yul\":10676:10805   */\n      pop\n        /* \"#utility.yul\":10844:10846   */\n      0x60\n        /* \"#utility.yul\":10870:10934   */\n      tag_234\n        /* \"#utility.yul\":10926:10933   */\n      dup9\n        /* \"#utility.yul\":10917:10923   */\n      dup3\n        /* \"#utility.yul\":10906:10915   */\n      dup10\n        /* \"#utility.yul\":10902:10924   */\n      add\n        /* \"#utility.yul\":10870:10934   */\n      tag_127\n      jump\t// in\n    tag_234:\n        /* \"#utility.yul\":10860:10934   */\n      swap3\n      pop\n        /* \"#utility.yul\":10815:10944   */\n      pop\n        /* \"#utility.yul\":10983:10986   */\n      0x80\n        /* \"#utility.yul\":11010:11073   */\n      tag_235\n        /* \"#utility.yul\":11065:11072   */\n      dup9\n        /* \"#utility.yul\":11056:11062   */\n      dup3\n        /* \"#utility.yul\":11045:11054   */\n      dup10\n        /* \"#utility.yul\":11041:11063   */\n      add\n        /* \"#utility.yul\":11010:11073   */\n      tag_123\n      jump\t// in\n    tag_235:\n        /* \"#utility.yul\":11000:11073   */\n      swap2\n      pop\n        /* \"#utility.yul\":10954:11083   */\n      pop\n        /* \"#utility.yul\":10119:11090   */\n      swap3\n      swap6\n      pop\n      swap3\n      swap6\n      swap1\n      swap4\n      pop\n      jump\t// out\n\n    auxdata: 0xa2646970667358221220b0d742a3b6c0aa6101fd00fe2af9e178d8a53132757f15024f90871a5245a4ba64736f6c634300081a0033\n}\n",
				"bytecode": {
					"linkReferences": {},
					"object": "60a060405266038d7ea4c680005f553480156018575f80fd5b503373ffffffffffffffffffffffffffffffffffffffff1660808173ffffffffffffffffffffffffffffffffffffffff1681525050608051610c6e61006c5f395f818161014601526104da0152610c6e5ff3fe608060405260043610610054575f3560e01c806357ea89b6146100585780639d68f2691461006e578063b60d4288146100aa578063dba6335f146100b4578063dc0d3dff146100de578063eb2aae5c1461011a575b5f80fd5b348015610063575f80fd5b5061006c610144565b005b348015610079575f80fd5b50610094600480360381019061008f9190610719565b61037b565b6040516100a1919061075c565b60405180910390f35b6100b2610390565b005b3480156100bf575f80fd5b506100c86104d8565b6040516100d59190610784565b60405180910390f35b3480156100e9575f80fd5b5061010460048036038101906100ff91906107c7565b6104fc565b6040516101119190610784565b60405180910390f35b348015610125575f80fd5b5061012e610537565b60405161013b919061075c565b60405180910390f35b7f000000000000000000000000000000000000000000000000000000000000000073ffffffffffffffffffffffffffffffffffffffff163373ffffffffffffffffffffffffffffffffffffffff16146101d2576040517f08c379a00000000000000000000000000000000000000000000000000000000081526004016101c99061084c565b60405180910390fd5b5f5b600180549050811015610270575f600182815481106101f6576101f561086a565b5b905f5260205f20015f9054906101000a900473ffffffffffffffffffffffffffffffffffffffff1690505f60025f8373ffffffffffffffffffffffffffffffffffffffff1673ffffffffffffffffffffffffffffffffffffffff1681526020019081526020015f20819055505080806001019150506101d4565b505f67ffffffffffffffff81111561028b5761028a610897565b5b6040519080825280602002602001820160405280156102b95781602001602082028036833780820191505090505b50600190805190602001906102cf929190610619565b505f3373ffffffffffffffffffffffffffffffffffffffff16476040516102f5906108f1565b5f6040518083038185875af1925050503d805f811461032f576040519150601f19603f3d011682016040523d82523d5f602084013e610334565b606091505b5050905080610378576040517f08c379a000000000000000000000000000000000000000000000000000000000815260040161036f9061094f565b60405180910390fd5b50565b6002602052805f5260405f205f915090505481565b5f34116103d2576040517f08c379a00000000000000000000000000000000000000000000000000000000081526004016103c9906109b7565b60405180910390fd5b5f6103dc3461053c565b90505f54811015610422576040517f08c379a000000000000000000000000000000000000000000000000000000000815260040161041990610a1f565b60405180910390fd5b600133908060018154018082558091505060019003905f5260205f20015f9091909190916101000a81548173ffffffffffffffffffffffffffffffffffffffff021916908373ffffffffffffffffffffffffffffffffffffffff1602179055503460025f3373ffffffffffffffffffffffffffffffffffffffff1673ffffffffffffffffffffffffffffffffffffffff1681526020019081526020015f205f8282546104ce9190610a6a565b9250508190555050565b7f000000000000000000000000000000000000000000000000000000000000000081565b6001818154811061050b575f80fd5b905f5260205f20015f915054906101000a900473ffffffffffffffffffffffffffffffffffffffff1681565b5f5481565b5f80610546610574565b90505f670de0b6b3a7640000848361055e9190610a9d565b6105689190610b0b565b90508092505050919050565b5f8073694aa1769357215de4fac081bf1f309adc32530690505f8173ffffffffffffffffffffffffffffffffffffffff1663feaf968c6040518163ffffffff1660e01b815260040160a060405180830381865afa1580156105d7573d5f803e3d5ffd5b505050506040513d601f19601f820116820180604052508101906105fb9190610bc1565b5050509150506402540be400816106129190610a9d565b9250505090565b828054828255905f5260205f2090810192821561068f579160200282015b8281111561068e578251825f6101000a81548173ffffffffffffffffffffffffffffffffffffffff021916908373ffffffffffffffffffffffffffffffffffffffff16021790555091602001919060010190610637565b5b50905061069c91906106a0565b5090565b5b808211156106b7575f815f9055506001016106a1565b5090565b5f80fd5b5f73ffffffffffffffffffffffffffffffffffffffff82169050919050565b5f6106e8826106bf565b9050919050565b6106f8816106de565b8114610702575f80fd5b50565b5f81359050610713816106ef565b92915050565b5f6020828403121561072e5761072d6106bb565b5b5f61073b84828501610705565b91505092915050565b5f819050919050565b61075681610744565b82525050565b5f60208201905061076f5f83018461074d565b92915050565b61077e816106de565b82525050565b5f6020820190506107975f830184610775565b92915050565b6107a681610744565b81146107b0575f80fd5b50565b5f813590506107c18161079d565b92915050565b5f602082840312156107dc576107db6106bb565b5b5f6107e9848285016107b3565b91505092915050565b5f82825260208201905092915050565b7f53656e646572206973206e6f74206f776e6572000000000000000000000000005f82015250565b5f6108366013836107f2565b915061084182610802565b602082019050919050565b5f6020820190508181035f8301526108638161082a565b9050919050565b7f4e487b71000000000000000000000000000000000000000000000000000000005f52603260045260245ffd5b7f4e487b71000000000000000000000000000000000000000000000000000000005f52604160045260245ffd5b5f81905092915050565b50565b5f6108dc5f836108c4565b91506108e7826108ce565b5f82019050919050565b5f6108fb826108d1565b9150819050919050565b7f63616c6c5f4661696c65640000000000000000000000000000000000000000005f82015250565b5f610939600b836107f2565b915061094482610905565b602082019050919050565b5f6020820190508181035f8301526109668161092d565b9050919050565b7f4e6f204554482073656e742100000000000000000000000000000000000000005f82015250565b5f6109a1600c836107f2565b91506109ac8261096d565b602082019050919050565b5f6020820190508181035f8301526109ce81610995565b9050919050565b7f4469646e742073656e6420656e6f7567682045544800000000000000000000005f82015250565b5f610a096015836107f2565b9150610a14826109d5565b602082019050919050565b5f6020820190508181035f830152610a36816109fd565b9050919050565b7f4e487b71000000000000000000000000000000000000000000000000000000005f52601160045260245ffd5b5f610a7482610744565b9150610a7f83610744565b9250828201905080821115610a9757610a96610a3d565b5b92915050565b5f610aa782610744565b9150610ab283610744565b9250828202610ac081610744565b91508282048414831517610ad757610ad6610a3d565b5b5092915050565b7f4e487b71000000000000000000000000000000000000000000000000000000005f52601260045260245ffd5b5f610b1582610744565b9150610b2083610744565b925082610b3057610b2f610ade565b5b828204905092915050565b5f69ffffffffffffffffffff82169050919050565b610b5981610b3b565b8114610b63575f80fd5b50565b5f81519050610b7481610b50565b92915050565b5f819050919050565b610b8c81610b7a565b8114610b96575f80fd5b50565b5f81519050610ba781610b83565b92915050565b5f81519050610bbb8161079d565b92915050565b5f805f805f60a08688031215610bda57610bd96106bb565b5b5f610be788828901610b66565b9550506020610bf888828901610b99565b9450506040610c0988828901610bad565b9350506060610c1a88828901610bad565b9250506080610c2b88828901610b66565b915050929550929590935056fea2646970667358221220b0d742a3b6c0aa6101fd00fe2af9e178d8a53132757f15024f90871a5245a4ba64736f6c634300081a0033",
					"opcodes": "PUSH1 0xA0 PUSH1 0x40 MSTORE PUSH7 0x38D7EA4C68000 PUSH0 SSTORE CALLVALUE DUP1 ISZERO PUSH1 0x18 JUMPI PUSH0 DUP1 REVERT JUMPDEST POP CALLER PUSH20 0xFFFFFFFFFFFFFFFFFFFFFFFFFFFFFFFFFFFFFFFF AND PUSH1 0x80 DUP2 PUSH20 0xFFFFFFFFFFFFFFFFFFFFFFFFFFFFFFFFFFFFFFFF AND DUP2 MSTORE POP POP PUSH1 0x80 MLOAD PUSH2 0xC6E PUSH2 0x6C PUSH0 CODECOPY PUSH0 DUP2 DUP2 PUSH2 0x146 ADD MSTORE PUSH2 0x4DA ADD MSTORE PUSH2 0xC6E PUSH0 RETURN INVALID PUSH1 0x80 PUSH1 0x40 MSTORE PUSH1 0x4 CALLDATASIZE LT PUSH2 0x54 JUMPI PUSH0 CALLDATALOAD PUSH1 0xE0 SHR DUP1 PUSH4 0x57EA89B6 EQ PUSH2 0x58 JUMPI DUP1 PUSH4 0x9D68F269 EQ PUSH2 0x6E JUMPI DUP1 PUSH4 0xB60D4288 EQ PUSH2 0xAA JUMPI DUP1 PUSH4 0xDBA6335F EQ PUSH2 0xB4 JUMPI DUP1 PUSH4 0xDC0D3DFF EQ PUSH2 0xDE JUMPI DUP1 PUSH4 0xEB2AAE5C EQ PUSH2 0x11A JUMPI JUMPDEST PUSH0 DUP1 REVERT JUMPDEST CALLVALUE DUP1 ISZERO PUSH2 0x63 JUMPI PUSH0 DUP1 REVERT JUMPDEST POP PUSH2 0x6C PUSH2 0x144 JUMP JUMPDEST STOP JUMPDEST CALLVALUE DUP1 ISZERO PUSH2 0x79 JUMPI PUSH0 DUP1 REVERT JUMPDEST POP PUSH2 0x94 PUSH1 0x4 DUP1 CALLDATASIZE SUB DUP2 ADD SWAP1 PUSH2 0x8F SWAP2 SWAP1 PUSH2 0x719 JUMP JUMPDEST PUSH2 0x37B JUMP JUMPDEST PUSH1 0x40 MLOAD PUSH2 0xA1 SWAP2 SWAP1 PUSH2 0x75C JUMP JUMPDEST PUSH1 0x40 MLOAD DUP1 SWAP2 SUB SWAP1 RETURN JUMPDEST PUSH2 0xB2 PUSH2 0x390 JUMP JUMPDEST STOP JUMPDEST CALLVALUE DUP1 ISZERO PUSH2 0xBF JUMPI PUSH0 DUP1 REVERT JUMPDEST POP PUSH2 0xC8 PUSH2 0x4D8 JUMP JUMPDEST PUSH1 0x40 MLOAD PUSH2 0xD5 SWAP2 SWAP1 PUSH2 0x784 JUMP JUMPDEST PUSH1 0x40 MLOAD DUP1 SWAP2 SUB SWAP1 RETURN JUMPDEST CALLVALUE DUP1 ISZERO PUSH2 0xE9 JUMPI PUSH0 DUP1 REVERT JUMPDEST POP PUSH2 0x104 PUSH1 0x4 DUP1 CALLDATASIZE SUB DUP2 ADD SWAP1 PUSH2 0xFF SWAP2 SWAP1 PUSH2 0x7C7 JUMP JUMPDEST PUSH2 0x4FC JUMP JUMPDEST PUSH1 0x40 MLOAD PUSH2 0x111 SWAP2 SWAP1 PUSH2 0x784 JUMP JUMPDEST PUSH1 0x40 MLOAD DUP1 SWAP2 SUB SWAP1 RETURN JUMPDEST CALLVALUE DUP1 ISZERO PUSH2 0x125 JUMPI PUSH0 DUP1 REVERT JUMPDEST POP PUSH2 0x12E PUSH2 0x537 JUMP JUMPDEST PUSH1 0x40 MLOAD PUSH2 0x13B SWAP2 SWAP1 PUSH2 0x75C JUMP JUMPDEST PUSH1 0x40 MLOAD DUP1 SWAP2 SUB SWAP1 RETURN JUMPDEST PUSH32 0x0 PUSH20 0xFFFFFFFFFFFFFFFFFFFFFFFFFFFFFFFFFFFFFFFF AND CALLER PUSH20 0xFFFFFFFFFFFFFFFFFFFFFFFFFFFFFFFFFFFFFFFF AND EQ PUSH2 0x1D2 JUMPI PUSH1 0x40 MLOAD PUSH32 0x8C379A000000000000000000000000000000000000000000000000000000000 DUP2 MSTORE PUSH1 0x4 ADD PUSH2 0x1C9 SWAP1 PUSH2 0x84C JUMP JUMPDEST PUSH1 0x40 MLOAD DUP1 SWAP2 SUB SWAP1 REVERT JUMPDEST PUSH0 JUMPDEST PUSH1 0x1 DUP1 SLOAD SWAP1 POP DUP2 LT ISZERO PUSH2 0x270 JUMPI PUSH0 PUSH1 0x1 DUP3 DUP2 SLOAD DUP2 LT PUSH2 0x1F6 JUMPI PUSH2 0x1F5 PUSH2 0x86A JUMP JUMPDEST JUMPDEST SWAP1 PUSH0 MSTORE PUSH1 0x20 PUSH0 KECCAK256 ADD PUSH0 SWAP1 SLOAD SWAP1 PUSH2 0x100 EXP SWAP1 DIV PUSH20 0xFFFFFFFFFFFFFFFFFFFFFFFFFFFFFFFFFFFFFFFF AND SWAP1 POP PUSH0 PUSH1 0x2 PUSH0 DUP4 PUSH20 0xFFFFFFFFFFFFFFFFFFFFFFFFFFFFFFFFFFFFFFFF AND PUSH20 0xFFFFFFFFFFFFFFFFFFFFFFFFFFFFFFFFFFFFFFFF AND DUP2 MSTORE PUSH1 0x20 ADD SWAP1 DUP2 MSTORE PUSH1 0x20 ADD PUSH0 KECCAK256 DUP2 SWAP1 SSTORE POP POP DUP1 DUP1 PUSH1 0x1 ADD SWAP2 POP POP PUSH2 0x1D4 JUMP JUMPDEST POP PUSH0 PUSH8 0xFFFFFFFFFFFFFFFF DUP2 GT ISZERO PUSH2 0x28B JUMPI PUSH2 0x28A PUSH2 0x897 JUMP JUMPDEST JUMPDEST PUSH1 0x40 MLOAD SWAP1 DUP1 DUP3 MSTORE DUP1 PUSH1 0x20 MUL PUSH1 0x20 ADD DUP3 ADD PUSH1 0x40 MSTORE DUP1 ISZERO PUSH2 0x2B9 JUMPI DUP2 PUSH1 0x20 ADD PUSH1 0x20 DUP3 MUL DUP1 CALLDATASIZE DUP4 CALLDATACOPY DUP1 DUP3 ADD SWAP2 POP POP SWAP1 POP JUMPDEST POP PUSH1 0x1 SWAP1 DUP1 MLOAD SWAP1 PUSH1 0x20 ADD SWAP1 PUSH2 0x2CF SWAP3 SWAP2 SWAP1 PUSH2 0x619 JUMP JUMPDEST POP PUSH0 CALLER PUSH20 0xFFFFFFFFFFFFFFFFFFFFFFFFFFFFFFFFFFFFFFFF AND SELFBALANCE PUSH1 0x40 MLOAD PUSH2 0x2F5 SWAP1 PUSH2 0x8F1 JUMP JUMPDEST PUSH0 PUSH1 0x40 MLOAD DUP1 DUP4 SUB DUP2 DUP6 DUP8 GAS CALL SWAP3 POP POP POP RETURNDATASIZE DUP1 PUSH0 DUP2 EQ PUSH2 0x32F JUMPI PUSH1 0x40 MLOAD SWAP2 POP PUSH1 0x1F NOT PUSH1 0x3F RETURNDATASIZE ADD AND DUP3 ADD PUSH1 0x40 MSTORE RETURNDATASIZE DUP3 MSTORE RETURNDATASIZE PUSH0 PUSH1 0x20 DUP5 ADD RETURNDATACOPY PUSH2 0x334 JUMP JUMPDEST PUSH1 0x60 SWAP2 POP JUMPDEST POP POP SWAP1 POP DUP1 PUSH2 0x378 JUMPI PUSH1 0x40 MLOAD PUSH32 0x8C379A000000000000000000000000000000000000000000000000000000000 DUP2 MSTORE PUSH1 0x4 ADD PUSH2 0x36F SWAP1 PUSH2 0x94F JUMP JUMPDEST PUSH1 0x40 MLOAD DUP1 SWAP2 SUB SWAP1 REVERT JUMPDEST POP JUMP JUMPDEST PUSH1 0x2 PUSH1 0x20 MSTORE DUP1 PUSH0 MSTORE PUSH1 0x40 PUSH0 KECCAK256 PUSH0 SWAP2 POP SWAP1 POP SLOAD DUP2 JUMP JUMPDEST PUSH0 CALLVALUE GT PUSH2 0x3D2 JUMPI PUSH1 0x40 MLOAD PUSH32 0x8C379A000000000000000000000000000000000000000000000000000000000 DUP2 MSTORE PUSH1 0x4 ADD PUSH2 0x3C9 SWAP1 PUSH2 0x9B7 JUMP JUMPDEST PUSH1 0x40 MLOAD DUP1 SWAP2 SUB SWAP1 REVERT JUMPDEST PUSH0 PUSH2 0x3DC CALLVALUE PUSH2 0x53C JUMP JUMPDEST SWAP1 POP PUSH0 SLOAD DUP2 LT ISZERO PUSH2 0x422 JUMPI PUSH1 0x40 MLOAD PUSH32 0x8C379A000000000000000000000000000000000000000000000000000000000 DUP2 MSTORE PUSH1 0x4 ADD PUSH2 0x419 SWAP1 PUSH2 0xA1F JUMP JUMPDEST PUSH1 0x40 MLOAD DUP1 SWAP2 SUB SWAP1 REVERT JUMPDEST PUSH1 0x1 CALLER SWAP1 DUP1 PUSH1 0x1 DUP2 SLOAD ADD DUP1 DUP3 SSTORE DUP1 SWAP2 POP POP PUSH1 0x1 SWAP1 SUB SWAP1 PUSH0 MSTORE PUSH1 0x20 PUSH0 KECCAK256 ADD PUSH0 SWAP1 SWAP2 SWAP1 SWAP2 SWAP1 SWAP2 PUSH2 0x100 EXP DUP2 SLOAD DUP2 PUSH20 0xFFFFFFFFFFFFFFFFFFFFFFFFFFFFFFFFFFFFFFFF MUL NOT AND SWAP1 DUP4 PUSH20 0xFFFFFFFFFFFFFFFFFFFFFFFFFFFFFFFFFFFFFFFF AND MUL OR SWAP1 SSTORE POP CALLVALUE PUSH1 0x2 PUSH0 CALLER PUSH20 0xFFFFFFFFFFFFFFFFFFFFFFFFFFFFFFFFFFFFFFFF AND PUSH20 0xFFFFFFFFFFFFFFFFFFFFFFFFFFFFFFFFFFFFFFFF AND DUP2 MSTORE PUSH1 0x20 ADD SWAP1 DUP2 MSTORE PUSH1 0x20 ADD PUSH0 KECCAK256 PUSH0 DUP3 DUP3 SLOAD PUSH2 0x4CE SWAP2 SWAP1 PUSH2 0xA6A JUMP JUMPDEST SWAP3 POP POP DUP2 SWAP1 SSTORE POP POP JUMP JUMPDEST PUSH32 0x0 DUP2 JUMP JUMPDEST PUSH1 0x1 DUP2 DUP2 SLOAD DUP2 LT PUSH2 0x50B JUMPI PUSH0 DUP1 REVERT JUMPDEST SWAP1 PUSH0 MSTORE PUSH1 0x20 PUSH0 KECCAK256 ADD PUSH0 SWAP2 POP SLOAD SWAP1 PUSH2 0x100 EXP SWAP1 DIV PUSH20 0xFFFFFFFFFFFFFFFFFFFFFFFFFFFFFFFFFFFFFFFF AND DUP2 JUMP JUMPDEST PUSH0 SLOAD DUP2 JUMP JUMPDEST PUSH0 DUP1 PUSH2 0x546 PUSH2 0x574 JUMP JUMPDEST SWAP1 POP PUSH0 PUSH8 0xDE0B6B3A7640000 DUP5 DUP4 PUSH2 0x55E SWAP2 SWAP1 PUSH2 0xA9D JUMP JUMPDEST PUSH2 0x568 SWAP2 SWAP1 PUSH2 0xB0B JUMP JUMPDEST SWAP1 POP DUP1 SWAP3 POP POP POP SWAP2 SWAP1 POP JUMP JUMPDEST PUSH0 DUP1 PUSH20 0x694AA1769357215DE4FAC081BF1F309ADC325306 SWAP1 POP PUSH0 DUP2 PUSH20 0xFFFFFFFFFFFFFFFFFFFFFFFFFFFFFFFFFFFFFFFF AND PUSH4 0xFEAF968C PUSH1 0x40 MLOAD DUP2 PUSH4 0xFFFFFFFF AND PUSH1 0xE0 SHL DUP2 MSTORE PUSH1 0x4 ADD PUSH1 0xA0 PUSH1 0x40 MLOAD DUP1 DUP4 SUB DUP2 DUP7 GAS STATICCALL ISZERO DUP1 ISZERO PUSH2 0x5D7 JUMPI RETURNDATASIZE PUSH0 DUP1 RETURNDATACOPY RETURNDATASIZE PUSH0 REVERT JUMPDEST POP POP POP POP PUSH1 0x40 MLOAD RETURNDATASIZE PUSH1 0x1F NOT PUSH1 0x1F DUP3 ADD AND DUP3 ADD DUP1 PUSH1 0x40 MSTORE POP DUP2 ADD SWAP1 PUSH2 0x5FB SWAP2 SWAP1 PUSH2 0xBC1 JUMP JUMPDEST POP POP POP SWAP2 POP POP PUSH5 0x2540BE400 DUP2 PUSH2 0x612 SWAP2 SWAP1 PUSH2 0xA9D JUMP JUMPDEST SWAP3 POP POP POP SWAP1 JUMP JUMPDEST DUP3 DUP1 SLOAD DUP3 DUP3 SSTORE SWAP1 PUSH0 MSTORE PUSH1 0x20 PUSH0 KECCAK256 SWAP1 DUP2 ADD SWAP3 DUP3 ISZERO PUSH2 0x68F JUMPI SWAP2 PUSH1 0x20 MUL DUP3 ADD JUMPDEST DUP3 DUP2 GT ISZERO PUSH2 0x68E JUMPI DUP3 MLOAD DUP3 PUSH0 PUSH2 0x100 EXP DUP2 SLOAD DUP2 PUSH20 0xFFFFFFFFFFFFFFFFFFFFFFFFFFFFFFFFFFFFFFFF MUL NOT AND SWAP1 DUP4 PUSH20 0xFFFFFFFFFFFFFFFFFFFFFFFFFFFFFFFFFFFFFFFF AND MUL OR SWAP1 SSTORE POP SWAP2 PUSH1 0x20 ADD SWAP2 SWAP1 PUSH1 0x1 ADD SWAP1 PUSH2 0x637 JUMP JUMPDEST JUMPDEST POP SWAP1 POP PUSH2 0x69C SWAP2 SWAP1 PUSH2 0x6A0 JUMP JUMPDEST POP SWAP1 JUMP JUMPDEST JUMPDEST DUP1 DUP3 GT ISZERO PUSH2 0x6B7 JUMPI PUSH0 DUP2 PUSH0 SWAP1 SSTORE POP PUSH1 0x1 ADD PUSH2 0x6A1 JUMP JUMPDEST POP SWAP1 JUMP JUMPDEST PUSH0 DUP1 REVERT JUMPDEST PUSH0 PUSH20 0xFFFFFFFFFFFFFFFFFFFFFFFFFFFFFFFFFFFFFFFF DUP3 AND SWAP1 POP SWAP2 SWAP1 POP JUMP JUMPDEST PUSH0 PUSH2 0x6E8 DUP3 PUSH2 0x6BF JUMP JUMPDEST SWAP1 POP SWAP2 SWAP1 POP JUMP JUMPDEST PUSH2 0x6F8 DUP2 PUSH2 0x6DE JUMP JUMPDEST DUP2 EQ PUSH2 0x702 JUMPI PUSH0 DUP1 REVERT JUMPDEST POP JUMP JUMPDEST PUSH0 DUP2 CALLDATALOAD SWAP1 POP PUSH2 0x713 DUP2 PUSH2 0x6EF JUMP JUMPDEST SWAP3 SWAP2 POP POP JUMP JUMPDEST PUSH0 PUSH1 0x20 DUP3 DUP5 SUB SLT ISZERO PUSH2 0x72E JUMPI PUSH2 0x72D PUSH2 0x6BB JUMP JUMPDEST JUMPDEST PUSH0 PUSH2 0x73B DUP5 DUP3 DUP6 ADD PUSH2 0x705 JUMP JUMPDEST SWAP2 POP POP SWAP3 SWAP2 POP POP JUMP JUMPDEST PUSH0 DUP2 SWAP1 POP SWAP2 SWAP1 POP JUMP JUMPDEST PUSH2 0x756 DUP2 PUSH2 0x744 JUMP JUMPDEST DUP3 MSTORE POP POP JUMP JUMPDEST PUSH0 PUSH1 0x20 DUP3 ADD SWAP1 POP PUSH2 0x76F PUSH0 DUP4 ADD DUP5 PUSH2 0x74D JUMP JUMPDEST SWAP3 SWAP2 POP POP JUMP JUMPDEST PUSH2 0x77E DUP2 PUSH2 0x6DE JUMP JUMPDEST DUP3 MSTORE POP POP JUMP JUMPDEST PUSH0 PUSH1 0x20 DUP3 ADD SWAP1 POP PUSH2 0x797 PUSH0 DUP4 ADD DUP5 PUSH2 0x775 JUMP JUMPDEST SWAP3 SWAP2 POP POP JUMP JUMPDEST PUSH2 0x7A6 DUP2 PUSH2 0x744 JUMP JUMPDEST DUP2 EQ PUSH2 0x7B0 JUMPI PUSH0 DUP1 REVERT JUMPDEST POP JUMP JUMPDEST PUSH0 DUP2 CALLDATALOAD SWAP1 POP PUSH2 0x7C1 DUP2 PUSH2 0x79D JUMP JUMPDEST SWAP3 SWAP2 POP POP JUMP JUMPDEST PUSH0 PUSH1 0x20 DUP3 DUP5 SUB SLT ISZERO PUSH2 0x7DC JUMPI PUSH2 0x7DB PUSH2 0x6BB JUMP JUMPDEST JUMPDEST PUSH0 PUSH2 0x7E9 DUP5 DUP3 DUP6 ADD PUSH2 0x7B3 JUMP JUMPDEST SWAP2 POP POP SWAP3 SWAP2 POP POP JUMP JUMPDEST PUSH0 DUP3 DUP3 MSTORE PUSH1 0x20 DUP3 ADD SWAP1 POP SWAP3 SWAP2 POP POP JUMP JUMPDEST PUSH32 0x53656E646572206973206E6F74206F776E657200000000000000000000000000 PUSH0 DUP3 ADD MSTORE POP JUMP JUMPDEST PUSH0 PUSH2 0x836 PUSH1 0x13 DUP4 PUSH2 0x7F2 JUMP JUMPDEST SWAP2 POP PUSH2 0x841 DUP3 PUSH2 0x802 JUMP JUMPDEST PUSH1 0x20 DUP3 ADD SWAP1 POP SWAP2 SWAP1 POP JUMP JUMPDEST PUSH0 PUSH1 0x20 DUP3 ADD SWAP1 POP DUP2 DUP2 SUB PUSH0 DUP4 ADD MSTORE PUSH2 0x863 DUP2 PUSH2 0x82A JUMP JUMPDEST SWAP1 POP SWAP2 SWAP1 POP JUMP JUMPDEST PUSH32 0x4E487B7100000000000000000000000000000000000000000000000000000000 PUSH0 MSTORE PUSH1 0x32 PUSH1 0x4 MSTORE PUSH1 0x24 PUSH0 REVERT JUMPDEST PUSH32 0x4E487B7100000000000000000000000000000000000000000000000000000000 PUSH0 MSTORE PUSH1 0x41 PUSH1 0x4 MSTORE PUSH1 0x24 PUSH0 REVERT JUMPDEST PUSH0 DUP2 SWAP1 POP SWAP3 SWAP2 POP POP JUMP JUMPDEST POP JUMP JUMPDEST PUSH0 PUSH2 0x8DC PUSH0 DUP4 PUSH2 0x8C4 JUMP JUMPDEST SWAP2 POP PUSH2 0x8E7 DUP3 PUSH2 0x8CE JUMP JUMPDEST PUSH0 DUP3 ADD SWAP1 POP SWAP2 SWAP1 POP JUMP JUMPDEST PUSH0 PUSH2 0x8FB DUP3 PUSH2 0x8D1 JUMP JUMPDEST SWAP2 POP DUP2 SWAP1 POP SWAP2 SWAP1 POP JUMP JUMPDEST PUSH32 0x63616C6C5F4661696C6564000000000000000000000000000000000000000000 PUSH0 DUP3 ADD MSTORE POP JUMP JUMPDEST PUSH0 PUSH2 0x939 PUSH1 0xB DUP4 PUSH2 0x7F2 JUMP JUMPDEST SWAP2 POP PUSH2 0x944 DUP3 PUSH2 0x905 JUMP JUMPDEST PUSH1 0x20 DUP3 ADD SWAP1 POP SWAP2 SWAP1 POP JUMP JUMPDEST PUSH0 PUSH1 0x20 DUP3 ADD SWAP1 POP DUP2 DUP2 SUB PUSH0 DUP4 ADD MSTORE PUSH2 0x966 DUP2 PUSH2 0x92D JUMP JUMPDEST SWAP1 POP SWAP2 SWAP1 POP JUMP JUMPDEST PUSH32 0x4E6F204554482073656E74210000000000000000000000000000000000000000 PUSH0 DUP3 ADD MSTORE POP JUMP JUMPDEST PUSH0 PUSH2 0x9A1 PUSH1 0xC DUP4 PUSH2 0x7F2 JUMP JUMPDEST SWAP2 POP PUSH2 0x9AC DUP3 PUSH2 0x96D JUMP JUMPDEST PUSH1 0x20 DUP3 ADD SWAP1 POP SWAP2 SWAP1 POP JUMP JUMPDEST PUSH0 PUSH1 0x20 DUP3 ADD SWAP1 POP DUP2 DUP2 SUB PUSH0 DUP4 ADD MSTORE PUSH2 0x9CE DUP2 PUSH2 0x995 JUMP JUMPDEST SWAP1 POP SWAP2 SWAP1 POP JUMP JUMPDEST PUSH32 0x4469646E742073656E6420656E6F756768204554480000000000000000000000 PUSH0 DUP3 ADD MSTORE POP JUMP JUMPDEST PUSH0 PUSH2 0xA09 PUSH1 0x15 DUP4 PUSH2 0x7F2 JUMP JUMPDEST SWAP2 POP PUSH2 0xA14 DUP3 PUSH2 0x9D5 JUMP JUMPDEST PUSH1 0x20 DUP3 ADD SWAP1 POP SWAP2 SWAP1 POP JUMP JUMPDEST PUSH0 PUSH1 0x20 DUP3 ADD SWAP1 POP DUP2 DUP2 SUB PUSH0 DUP4 ADD MSTORE PUSH2 0xA36 DUP2 PUSH2 0x9FD JUMP JUMPDEST SWAP1 POP SWAP2 SWAP1 POP JUMP JUMPDEST PUSH32 0x4E487B7100000000000000000000000000000000000000000000000000000000 PUSH0 MSTORE PUSH1 0x11 PUSH1 0x4 MSTORE PUSH1 0x24 PUSH0 REVERT JUMPDEST PUSH0 PUSH2 0xA74 DUP3 PUSH2 0x744 JUMP JUMPDEST SWAP2 POP PUSH2 0xA7F DUP4 PUSH2 0x744 JUMP JUMPDEST SWAP3 POP DUP3 DUP3 ADD SWAP1 POP DUP1 DUP3 GT ISZERO PUSH2 0xA97 JUMPI PUSH2 0xA96 PUSH2 0xA3D JUMP JUMPDEST JUMPDEST SWAP3 SWAP2 POP POP JUMP JUMPDEST PUSH0 PUSH2 0xAA7 DUP3 PUSH2 0x744 JUMP JUMPDEST SWAP2 POP PUSH2 0xAB2 DUP4 PUSH2 0x744 JUMP JUMPDEST SWAP3 POP DUP3 DUP3 MUL PUSH2 0xAC0 DUP2 PUSH2 0x744 JUMP JUMPDEST SWAP2 POP DUP3 DUP3 DIV DUP5 EQ DUP4 ISZERO OR PUSH2 0xAD7 JUMPI PUSH2 0xAD6 PUSH2 0xA3D JUMP JUMPDEST JUMPDEST POP SWAP3 SWAP2 POP POP JUMP JUMPDEST PUSH32 0x4E487B7100000000000000000000000000000000000000000000000000000000 PUSH0 MSTORE PUSH1 0x12 PUSH1 0x4 MSTORE PUSH1 0x24 PUSH0 REVERT JUMPDEST PUSH0 PUSH2 0xB15 DUP3 PUSH2 0x744 JUMP JUMPDEST SWAP2 POP PUSH2 0xB20 DUP4 PUSH2 0x744 JUMP JUMPDEST SWAP3 POP DUP3 PUSH2 0xB30 JUMPI PUSH2 0xB2F PUSH2 0xADE JUMP JUMPDEST JUMPDEST DUP3 DUP3 DIV SWAP1 POP SWAP3 SWAP2 POP POP JUMP JUMPDEST PUSH0 PUSH10 0xFFFFFFFFFFFFFFFFFFFF DUP3 AND SWAP1 POP SWAP2 SWAP1 POP JUMP JUMPDEST PUSH2 0xB59 DUP2 PUSH2 0xB3B JUMP JUMPDEST DUP2 EQ PUSH2 0xB63 JUMPI PUSH0 DUP1 REVERT JUMPDEST POP JUMP JUMPDEST PUSH0 DUP2 MLOAD SWAP1 POP PUSH2 0xB74 DUP2 PUSH2 0xB50 JUMP JUMPDEST SWAP3 SWAP2 POP POP JUMP JUMPDEST PUSH0 DUP2 SWAP1 POP SWAP2 SWAP1 POP JUMP JUMPDEST PUSH2 0xB8C DUP2 PUSH2 0xB7A JUMP JUMPDEST DUP2 EQ PUSH2 0xB96 JUMPI PUSH0 DUP1 REVERT JUMPDEST POP JUMP JUMPDEST PUSH0 DUP2 MLOAD SWAP1 POP PUSH2 0xBA7 DUP2 PUSH2 0xB83 JUMP JUMPDEST SWAP3 SWAP2 POP POP JUMP JUMPDEST PUSH0 DUP2 MLOAD SWAP1 POP PUSH2 0xBBB DUP2 PUSH2 0x79D JUMP JUMPDEST SWAP3 SWAP2 POP POP JUMP JUMPDEST PUSH0 DUP1 PUSH0 DUP1 PUSH0 PUSH1 0xA0 DUP7 DUP9 SUB SLT ISZERO PUSH2 0xBDA JUMPI PUSH2 0xBD9 PUSH2 0x6BB JUMP JUMPDEST JUMPDEST PUSH0 PUSH2 0xBE7 DUP9 DUP3 DUP10 ADD PUSH2 0xB66 JUMP JUMPDEST SWAP6 POP POP PUSH1 0x20 PUSH2 0xBF8 DUP9 DUP3 DUP10 ADD PUSH2 0xB99 JUMP JUMPDEST SWAP5 POP POP PUSH1 0x40 PUSH2 0xC09 DUP9 DUP3 DUP10 ADD PUSH2 0xBAD JUMP JUMPDEST SWAP4 POP POP PUSH1 0x60 PUSH2 0xC1A DUP9 DUP3 DUP10 ADD PUSH2 0xBAD JUMP JUMPDEST SWAP3 POP POP PUSH1 0x80 PUSH2 0xC2B DUP9 DUP3 DUP10 ADD PUSH2 0xB66 JUMP JUMPDEST SWAP2 POP POP SWAP3 SWAP6 POP SWAP3 SWAP6 SWAP1 SWAP4 POP JUMP INVALID LOG2 PUSH5 0x6970667358 0x22 SLT KECCAK256 0xB0 0xD7 TIMESTAMP LOG3 0xB6 0xC0 0xAA PUSH2 0x1FD STOP INVALID 0x2A 0xF9 0xE1 PUSH25 0xD8A53132757F15024F90871A5245A4BA64736F6C634300081A STOP CALLER "
				},
				"gasEstimates": {
					"creation": {
						"codeDepositCost": "636400",
						"executionCost": "infinite",
						"totalCost": "infinite"
					},
					"external": {
						"Withdraw()": "infinite",
						"addressToAmmountFunded(address)": "2802",
						"fund()": "infinite",
						"funders(uint256)": "5010",
						"i_owner()": "infinite",
						"min_USD()": "2512"
					}
				},
				"methodIdentifiers": {
					"Withdraw()": "57ea89b6",
					"addressToAmmountFunded(address)": "9d68f269",
					"fund()": "b60d4288",
					"funders(uint256)": "dc0d3dff",
					"i_owner()": "dba6335f",
					"min_USD()": "eb2aae5c"
				}
			},
			"storageLayout": {
				"storage": [
					{
						"astId": 57,
						"contract": "Fundme.sol:FundMe",
						"label": "min_USD",
						"offset": 0,
						"slot": "0",
						"type": "t_uint256"
					},
					{
						"astId": 60,
						"contract": "Fundme.sol:FundMe",
						"label": "funders",
						"offset": 0,
						"slot": "1",
						"type": "t_array(t_address)dyn_storage"
					},
					{
						"astId": 64,
						"contract": "Fundme.sol:FundMe",
						"label": "addressToAmmountFunded",
						"offset": 0,
						"slot": "2",
						"type": "t_mapping(t_address,t_uint256)"
					}
				],
				"types": {
					"t_address": {
						"encoding": "inplace",
						"label": "address",
						"numberOfBytes": "20"
					},
					"t_array(t_address)dyn_storage": {
						"base": "t_address",
						"encoding": "dynamic_array",
						"label": "address[]",
						"numberOfBytes": "32"
					},
					"t_mapping(t_address,t_uint256)": {
						"encoding": "mapping",
						"key": "t_address",
						"label": "mapping(address => uint256)",
						"numberOfBytes": "32",
						"value": "t_uint256"
					},
					"t_uint256": {
						"encoding": "inplace",
						"label": "uint256",
						"numberOfBytes": "32"
					}
				}
			},
			"userdoc": {
				"kind": "user",
				"methods": {},
				"version": 1
			}
		}
	}
}